:020000040800F2
:1000000000C0002081370008453700084737000846
:10001000493700084B3700084D3700080000000042
:100020000000000000000000000000004F37000842
:10003000513700080000000053370008553700080A
:10004000C9370008C9370008C9370008C937000890
:10005000C9370008C9370008C9370008C937000880
:10006000C9370008C9370008C9370008253000081B
:10007000C9370008C9370008C9370008C937000860
:100080006137000871370008C9370008C937000810
:10009000C9370008C9370008C9370008C937000840
:1000A000C9370008C9370008C9370008C937000830
:1000B000C9370008C9370008C9370008C937000820
:1000C000C9370008C9370008C9370008C937000810
:1000D000C9370008C9370008C9370008C937000800
:1000E000C9370008C9370008C9370008C9370008F0
:1000F000C9370008C9370008C9370008C9370008E0
:10010000C9370008C9370008C9370008C9370008CF
:10011000C9370008C9370008C9370008C9370008BF
:10012000C9370008C9370008C9370008C9370008AF
:1001300000000000000000000000000000000000BF
:1001400000000000000000000000000000000000AF
:10015000000000000000000000000000000000009F
:10016000000000000000000000000000000000008F
:10017000000000000000000000000000000000007F
:10018000000000000000000000000000000000006F
:10019000000000000000000000000000000000005F
:1001A000000000000000000000000000000000004F
:1001B000000000000000000000000000000000003F
:1001C000000000000000000000000000000000002F
:1001D000000000000000000000000000000000001F
:0401E0005FF8E0F1F3
:1001E40010B5054C237833B9044B13B10448AFF36D
:1001F40000800123237010BD2400002000000000B3
:100204001438000808B5034B1BB103490348AFF386
:10021400008008BD000000002800002014380008F9
:1002240080F0004002E000BF81F0004142001FBFA7
:100234005FEA410392EA030F7FEA226C7FEA236CB0
:100244006AD04FEA1262D2EB1363C1BFD2184140A5
:1002540048404140B8BF5B42192B88BF704710F03B
:10026400004F40F4000020F07F4018BF404211F0DE
:10027400004F41F4000121F07F4118BF494292EA46
:10028400030F3FD0A2F1010241FA03FC10EB0C0072
:10029400C3F1200301FA03F100F0004302D54942FF
:1002A40060EB4000B0F5000F13D3B0F1807F06D3AC
:1002B40040084FEA310102F10102FE2A51D2B1F1A4
:1002C400004F40EBC25008BF20F0010040EA030099
:1002D4007047490040EB000010F4000FA2F1010246
:1002E400EDD1B0FA80FCACF1080CB2EB0C0200FAD0
:1002F4000CF0AABF00EBC25052421843BCBFD0401E
:100304001843704792F0000F81F4000106BF80F497
:1003140000000132013BB5E74FEA41037FEA226C5A
:1003240018BF7FEA236C21D092EA030F04D092F025
:10033400000F08BF0846704790EA010F1CBF002059
:10034400704712F07F4F04D1400028BF40F00040B6
:10035400704712F100723CBF00F50000704700F0D6
:10036400004343F0FE4040F4000070477FEA2262FD
:1003740016BF08467FEA23630146420206BF5FEACE
:10038400412390EA010F40F4800070474FF00003CE
:1003940004E000BF10F0004348BF40425FEA000C95
:1003A40008BF704743F0964301464FF000001CE03D
:1003B40050EA010208BF70474FF000030AE000BF93
:1003C40050EA010208BF704711F0004302D54042D1
:1003D40061EB41015FEA010C02BF84460146002043
:1003E40043F0B64308BFA3F18053A3F50003BCFA5E
:1003F4008CF2083AA3EBC25310DB01FA02FC63440B
:1004040000FA02FCC2F12002BCF1004F20FA02F211
:1004140043EB020008BF20F00100704702F1200204
:1004240001FA02FCC2F1200250EA4C0021FA02F265
:1004340043EB020008BF20EADC7070474FF0FF0C6A
:100444001CEAD0521EBF1CEAD15392EA0C0F93EA65
:100454000C0F6FD01A4480EA010C400218BF5FEA07
:1004640041211ED04FF0006343EA501043EA51117A
:10047400A0FB01310CF00040B1F5000F3EBF490074
:1004840041EAD3715B0040EA010062F17F02FD2A78
:100494001DD8B3F1004F40EBC25008BF20F001005B
:1004A400704790F0000F0CF0004C08BF49024CEA72
:1004B400502040EA51207F3AC2BFD2F1FF0340EA04
:1004C400C250704740F400004FF00003013A5DDC75
:1004D40012F1190FDCBF00F000407047C2F10002B6
:1004E400410021FA02F1C2F1200200FA02FC5FEAA3
:1004F400310040F1000053EA4C0308BF20EADC70ED
:10050400704792F0000F00F0004C02BF400010F45E
:10051400000F013AF9D040EA0C0093F0000F01F00B
:10052400004C02BF490011F4000F013BF9D041EA2D
:100534000C018FE70CEAD15392EA0C0F18BF93EA2F
:100544000C0F0AD030F0004C18BF31F0004CD8D159
:1005540080EA010000F00040704790F0000F17BFE0
:1005640090F0004F084691F0000F91F0004F14D026
:1005740092EA0C0F01D142020FD193EA0C0F03D17E
:100584004B0218BF084608D180EA010000F0004081
:1005940040F0FE4040F40000704740F0FE4040F45C
:1005A400400070474FF0FF0C1CEAD0521EBF1CEAFB
:1005B400D15392EA0C0F93EA0C0F69D0A2EB030219
:1005C40080EA010C49024FEA402037D04FF08053B3
:1005D40043EA111143EA10130CF000408B4238BF78
:1005E4005B0042F17D024FF4000C8B4224BF5B1A86
:1005F40040EA0C00B3EB510F24BFA3EB510340EAD4
:100604005C00B3EB910F24BFA3EB910340EA9C0081
:10061400B3EBD10F24BFA3EBD10340EADC001B01F1
:1006240018BF5FEA1C1CE0D1FD2A3FF650AF8B4295
:1006340040EBC25008BF20F0010070470CF0004CA2
:100644004CEA50207F32C2BFD2F1FF0340EAC250CD
:10065400704740F400004FF00003013A37E792F08E
:10066400000F00F0004C02BF400010F4000F013AEC
:10067400F9D040EA0C0093F0000F01F0004C02BFE7
:10068400490011F4000F013BF9D041EA0C0195E750
:100694000CEAD15392EA0C0F08D142027FF47DAFE9
:1006A40093EA0C0F7FF470AF084676E793EA0C0FD9
:1006B40004D14B023FF44CAF08466EE730F0004CD7
:1006C40018BF31F0004CCAD130F000427FF45CAF67
:1006D40031F000437FF43CAF5FE700BF4FF0FF3CD5
:1006E40006E000BF4FF0010C02E000BF4FF0010C28
:1006F4004DF804CD4FEA40024FEA41037FEA226CF1
:1007040018BF7FEA236C11D001B052EA530C18BF12
:1007140090EA010F58BFB2EB030088BFC81738BF77
:100724006FEAE17018BF40F0010070477FEA226C65
:1007340002D15FEA402C05D17FEA236CE4D15FEA61
:10074400412CE1D05DF8040B704700BF8446084695
:100754006146FFE70FB5FFF7C9FF002848BF10F156
:10076400000F0FBD4DF808EDFFF7F4FF0CBF01209B
:1007740000205DF808FB00BF4DF808EDFFF7EAFF25
:1007840034BF012000205DF808FB00BF4DF808EDE0
:10079400FFF7E0FF94BF012000205DF808FB00BFD5
:1007A4004DF808EDFFF7D2FF94BF012000205DF85B
:1007B40008FB00BF4DF808EDFFF7C8FF34BF012068
:1007C40000205DF808FB00BF4FEA4002B2F1FE4F83
:1007D4000FD34FF09E03B3EB12620DD94FEA0023FF
:1007E40043F0004310F0004F23FA02F018BF4042D8
:1007F40070474FF00000704712F1610F01D14202BF
:1008040005D110F0004008BF6FF0004070474FF072
:100814000000704782B0084B1B68084AA2FB032300
:100824005B0A00FB03F0019000BF019B5A1E01927A
:10083400002BF9D102B0704700000020D34D6210A4
:1008440070B582B00446036813F0010F2CD0AB4B93
:100854005B6803F00C03042B1DD0A84B5B6803F00A
:100864000C03082B12D06368B3F5803F41D0002BF2
:1008740055D103F1804303F504331A6822F480321E
:100884001A601A6822F480221A6037E09B4B5B6876
:1008940013F4803FE7D0994B1B6813F4003F03D057
:1008A4006368002B00F0AE81236813F0020F76D04A
:1008B400924B5B6813F00C0F5FD0904B5B6803F0B6
:1008C4000C03082B54D02369002B00F08A808C4B36
:1008D40001221A6000F0F8FF0546884B1B6813F0EC
:1008E400020F75D100F0F0FF401B0228F5D9032058
:1008F4008BE1824A136843F480331360636843B323
:1009040000F0E2FF05467D4B1B6813F4003FCBD19A
:1009140000F0DAFF401B6428F5D9032075E1B3F534
:10092400A02F09D0754B1A6822F480321A601A6815
:1009340022F480221A60E1E703F18043A3F53C33FB
:100944001A6842F480221A601A6842F480321A60EB
:10095400D4E700F0B9FF0546684B1B6813F4003F69
:10096400A2D000F0B1FF401B6428F5D903204CE16C
:10097400624B5B6813F4803FA5D1604B1B6813F096
:10098400020F04D02369012B01D001203DE15B4A11
:10099400136823F0F803616943EAC1031360236811
:1009A40013F0080F32D0A369002B5BD0554B012202
:1009B4001A6000F089FF0546504B5B6A13F0020F82
:1009C40021D100F081FF401B0228F5D903201CE14E
:1009D4004A4A136823F0F803616943EAC1031360C8
:1009E400DDE7474B00221A6000F06EFF0546434BDB
:1009F4001B6813F0020FD2D000F066FF401B0228E0
:100A0400F5D9032001E10120FFF704FF236813F067
:100A1400040F00F09780394BDB6913F0805F33D10A
:100A2400364BDA6942F08052DA61DB6903F08053B5
:100A34000193019B0125344B1B6813F4807F25D05F
:100A4400E368012B36D0002B4CD103F1804303F52E
:100A540004331A6A22F001021A621A6A22F00402AA
:100A64001A622CE0274B00221A6000F02DFF054685
:100A7400224B5B6A13F0020FC8D000F025FF401B25
:100A84000228F5D90320C0E00025D4E71E4A1368E4
:100A940043F48073136000F017FF06461A4B1B687B
:100AA40013F4807FCCD100F00FFF801B6428F5D9AC
:100AB4000320AAE0114A136A43F001031362E368B6
:100AC40073B300F001FF06460C4B1B6A13F0020FD0
:100AD40037D100F0F9FE801B41F288339842F3D9F4
:100AE400032092E0052B11D0044B1A6A22F0010274
:100AF4001A621A6A22F004021A62E0E70010024045
:100B0400000042428004424200700040414B1A6A95
:100B140042F004021A621A6A42F001021A62CEE733
:100B240000F0D2FE06463B4B1B6A13F0020F08D0BE
:100B340000F0CAFE801B41F288339842F3D90320A7
:100B440063E0E5B9E369002B5ED0324A526802F0F3
:100B54000C02082A5BD0022B17D02F4B00221A60FC
:100B640000F0B2FE04462B4B1B6813F0007F47D005
:100B740000F0AAFE001B0228F5D9032045E0254A0F
:100B8400D36923F08053D361DCE7234B00221A603E
:100B940000F09AFE05461F4B1B6813F0007F06D039
:100BA40000F092FE401B0228F5D903202DE0236AB1
:100BB400B3F5803F1AD017494B6823F47413226AA3
:100BC400606A024313434B60134B01221A6000F026
:100BD4007BFE04460F4B1B6813F0007F0ED100F020
:100BE40073FE001B0228F5D903200EE0094A53685E
:100BF40023F40033A1680B435360DCE7002004E0D6
:100C0400002002E0012000E0002002B070BD0120BD
:100C1400FBE700BF001002406000424210B487B0FE
:100C2400164C94E80F000DF1180C0CE90F00238A00
:100C3400ADF80430124B5B6803F00C02082A1AD199
:100C4400C3F38342624412F8100C13F4803F05D1BD
:100C54000C4B03FB00F007B010BC7047084B5B68FB
:100C6400C3F34043634413F8142C074BB3FBF2F370
:100C740000FB03F0EFE70448EDE700BF2C38000861
:100C84000010024000093D0000127A00594B1B6815
:100C940003F007038B420CD2564A136823F0070370
:100CA4000B431360136803F007038B4201D0012048
:100CB400704770B5036813F0020F06D04E4A5368AC
:100CC40023F0F0038468234353600C46054603680D
:100CD40013F0010F52D04368012B23D0022B28D0EC
:100CE400454A126812F0020F00F0828042494A68B5
:100CF40022F0030213434B6000F0E6FD06466B68E6
:100D0400012B1DD0022B2AD03B4B5B6813F00C0F38
:100D140034D000F0D9FD801B41F288339842F3D9D6
:100D2400032064E0344A126812F4003FDED101204B
:100D34005DE0314A126812F0007FD7D1012056E0FD
:100D44002D4B5B6803F00C03042B17D000F0BCFDA3
:100D5400801B41F288339842F2D9032047E0264BA6
:100D64005B6803F00C03082B08D000F0ADFD801B7A
:100D740041F288339842F2D9032038E01D4B1B68B6
:100D840003F00703A3420CD91A4A136823F007039C
:100D940023431360136803F00703A34201D0012027
:100DA40025E02B6813F0040F06D0134A536823F48C
:100DB400E063E9680B4353602B6813F0080F07D016
:100DC4000D4A536823F46053296943EAC10353600D
:100DD400FFF724FF084B5B68C3F30313074AD35C94
:100DE400D840074B1860002000F03EFD002070BD85
:100DF4000120FCE7002002400010024040380008B7
:100E040000000020014B1868704700BF000000205C
:100E140008B5FFF7F7FF044B5B68C3F30223034AEB
:100E2400D35CD84008BD00BF001002405038000811
:100E340008B5FFF7E7FF044B5B68C3F3C223034A1B
:100E4400D35CD84008BD00BF0010024050380008F1
:100E540030B4036A23F001030362056A42688469BB
:100E640024F073040B681C4325F002058B682B43A4
:100E7400104DA84203D005F50065A84205D123F022
:100E84000803CD682B4323F004030A4DA84203D082
:100E940005F50065A84205D122F440724D69154359
:100EA4008A692A43426084614A684263036230BCAF
:100EB400704700BF002C014030B4036A23F48073F0
:100EC4000362036A4268C46924F073040D682C4306
:100ED40023F400738D6843EA0523124DA84203D01E
:100EE40005F50065A84206D123F40063CD6843EA02
:100EF400052323F480630B4DA84203D005F5006558
:100F0400A84207D122F440524D6942EA05128D6984
:100F140042EA05124260C4614A68C263036230BC9B
:100F2400704700BF002C014030B4036A23F480539F
:100F34000362036A4468C26922F4E6420D6842EA25
:100F4400052223F400538D6843EA0533094DA84272
:100F540003D005F50065A84204D124F480444D690A
:100F640044EA85144460C2614A680264036230BC86
:100F7400704700BF002C014010B4036A046A24F0D7
:100F840001040462846924F0F00444EA021223F0A8
:100F94000A030B438261036210BC704710B4036AF6
:100FA40023F0100303628469036A24F4704444EA5E
:100FB400023223F0A00343EA01138261036210BCEE
:100FC400704710B4846824F47F4442EA03230B433B
:100FD4002343836010BC704710B50468A26822F0F4
:100FE40070024B68134323F007030A681343A3609A
:100FF4004B68502B1ED00AD9602B21D0702B05D101
:101004000B698A68C9680068FFF7DBFF10BD402BD5
:10101400FCD103681C6A1A6A22F001021A6202688F
:10102400936923F0F003096943EA011393610368A8
:101034001C62EBE70A6989680068FFF79DFFE5E732
:101044000A6989680068FFF7A9FFDFE7704738B5C8
:1010540090F83C30012B18D00446012580F83C5010
:10106400022380F83D30FFF7B7FF2268D36823F0EE
:101074004003D3602268D36823F48043D36084F8A8
:101084003D50002084F83C0038BD0220FCE70000FD
:101094000368244A904212D002F5006290420ED0B6
:1010A400B0F1804F0BD0A2F59832904207D002F5F0
:1010B4008062904203D002F58062904203D123F013
:1010C40070034A681343174A904212D002F5006233
:1010D40090420ED0B0F1804F0BD0A2F598329042DE
:1010E40007D002F58062904203D002F580629042FC
:1010F40003D123F44073CA68134323F080034A697D
:10110400134303608B68C3620B688362054B984288
:1011140003D003F50063984201D10B6903630123F3
:1011240043617047002C0140A8B110B5044690F803
:101134003D305BB1022384F83D30211D2068FFF768
:10114400A7FF012384F83D30002010BD80F83C3017
:10115400FFF77CFFEEE701207047000030B4036A1C
:1011640023F010030362036A4468826922F4E642AE
:101174000D6842EA052223F020038D6843EA051333
:10118400114DA84203D005F50065A84206D123F00D
:101194008003CD6843EA051323F040030A4DA842B7
:1011A40003D005F50065A84207D124F440644D69D5
:1011B40044EA85048D6944EA8504446082614A688E
:1011C4008263036230BC7047002C014038B590F84C
:1011D4003C30012B66D00D460446012380F83C3098
:1011E400022380F83D300C2A1AD8DFE802F00719F0
:1011F4001919201919193419191947000068FFF72A
:1012040027FE2268936943F0080393612268936977
:1012140023F0040393612268936929690B43936162
:10122400012384F83D30002084F83C0038BD006878
:10123400FFF794FF2268936943F400639361226883
:10124400936923F48063936122689369296943EA6B
:1012540001239361E4E70068FFF72EFE2268D36957
:1012640043F00803D3612268D36923F00403D361F4
:101274002268D36929690B43D361D1E70068FFF77A
:1012840053FE2268D36943F40063D3612268D369AF
:1012940023F48063D3612268D369296943EA012373
:1012A400D361BDE70220C1E710B4012303FA01F4BE
:1012B400036A23EA04030362036A8A401343036252
:1012C40010BC704710B5044601220068FFF7ECFF1C
:1012D4002368094A934203D002F50062934203D182
:1012E4005A6C42F400425A642268136843F00103C2
:1012F4001360002010BD00BF002C014010B4042373
:1013040003FA01F4036A23EA04030362036A8A40CA
:101314001343036210BC704710B5044604220068EE
:10132400FFF7ECFF2268536C43F4004353642268D4
:10133400136843F001031360002010BD90F83C30A3
:10134400012B25D0012380F83C30CB6823F4407373
:101354008A68134323F480634A68134323F40063C5
:101364000A68134323F480530A69134323F4005394
:101374004A69134323F480438A69134323F40043E3
:10138400134302685364002380F83C3018467047C6
:101394000220704790F83C30012B22D030B4012257
:1013A40080F83C20022380F83D300468636823F011
:1013B40070036360046863680D682B4363600468AA
:1013C400A36823F08003A3600468A36849680B43FF
:1013D400A36080F83D20002380F83C30184630BCE0
:1013E4007047022070470000034690F82420012A29
:1013F40020D0012280F824200268906810F0010FA8
:1014040007D10D48806810F0010F02D10B488242C9
:1014140008D09A6A42F020029A620120002283F8DE
:1014240024207047506820F47020096801435160FB
:101434000020F3E702207047002801400024014007
:10144400074AD36823F4E0631B041B0C000200F476
:10145400E060184340F0BF6040F40030D060704753
:1014640000ED00E030B4174BDB68C3F30223C3F193
:101474000704042C28BF04241D1D062D18D9033B82
:101484004FF0FF3505FA04F421EA0401994005FA06
:1014940003F322EA0303194300280BDB0901C9B251
:1014A40000F1604000F5614080F8001330BC7047E3
:1014B4000023E5E700F00F000901C9B2024B1954FB
:1014C400F4E700BF00ED00E014ED00E000F01F02BF
:1014D400400901239340024A42F82030704700BF7C
:1014E40000E100E00138B0F1807F0AD2064B586079
:1014F400064AF02182F823100020986007221A601F
:1015040070470120704700BF10E000E000ED00E0EC
:10151400042805D0054A136823F0040313607047B8
:10152400024A136843F004031360704710E000E0BC
:10153400704708B5FFF7FCFF08BD0000F0B482B0A7
:1015440000263546ABE0002C63D0012C00D1CE68D8
:10155400FF2B72D88446FF2B72D8AC00DCF8002035
:101564000F27A74022EA070206FA04F42243CCF824
:1015740000204A6812F0805F00F09080654A946908
:1015840044F001049461926902F001020192019A0B
:10159400AC08A71C604A52F827C005F00302970064
:1015A4000F22BA402CEA020C5C4A90424ED002F55B
:1015B4008062904200F08B8002F58062904200F0DD
:1015C400888002F58062904200F0858002F5806296
:1015D400904200F0828002F58062904234D006226C
:1015E40035E04F4FBC4214D00BD94E4FBC4210D003
:1015F40007F58037BC420CD0A7F58017BC42A7D1B1
:1016040007E0A7F58017BC4203D007F58037BC423A
:101614009ED18C687CB1012C08D04261082697E7E2
:10162400CE68083694E7CE680C3691E70261082646
:101634008EE700268CE704268AE700F1040C8AE78B
:10164400A5F10804A40089E7052200E00022BA40BD
:1016540042EA0C020234304F47F824204A6812F45C
:10166400803F3CD0304C22681A4322604A6812F40E
:10167400003F3AD02C4C62681A4362604A6812F404
:10168400801F38D0284CA2681A43A2604A6812F41A
:10169400001F36D0244CE2681343E36001350F2D5C
:1016A40035D80122AA400B6813409A42F6D14C68FF
:1016B400122CB8D095D8022CB2D07FF644AF032CAC
:1016C400B7D0112C7FF444AFCE68043640E7012232
:1016D400BDE70222BBE70322B9E70422B7E7124CB5
:1016E400226822EA03022260C0E70F4C626822EA01
:1016F40003026260C2E70C4CA26822EA0302A26001
:10170400C4E7094CE26822EA0303E360C6E702B0D7
:10171400F0BC704700100240000001400008014086
:1017240000002110000031100004014083681942B8
:1017340001D1002070470120704712B909040161EA
:10174400704701617047C3685940C1607047000029
:1017540070B582B00446036813F0010F34D03E4BD9
:10176400DB6913F0805F48D13B4BDA6942F0805269
:10177400DA61DB6903F080530193019B0125374B48
:101784001B6813F4807F3AD0334B1B6A13F4407305
:1017940011D0626802F440729A420CD02E4A136A45
:1017A40023F440702E4901260E6000260E6010625C
:1017B40013F0010F37D1284A136A23F44073616888
:1017C4000B431362002D3FD1236813F0020F06D0A0
:1017D400214A536823F44043A1680B4353602368B0
:1017E40013F0100F35D01C4A536823F48003616949
:1017F4000B435360002002B070BD0025BFE7174AB9
:10180400136843F48073136000F05EF80646134BCC
:101814001B6813F4807FB7D100F056F8801B64284E
:10182400F5D90320E7E700F04FF806460A4B1B6A98
:1018340013F0020FBFD100F047F8801B41F2883348
:101844009842F3D90320D6E7D36923F08053D361B8
:10185400BAE70020CFE700BF00100240007000404C
:10186400400442427047000010B50446074B186814
:10187400074BA3FB00308009FFF734FE002221460A
:101884004FF0FF30FFF7EEFD002010BD00000020F8
:10189400D34D621008B5074A136843F01003136070
:1018A4000320FFF7CDFD0020FFF7DEFFFFF7DAFF8F
:1018B400002008BD00200240024A1368013313606F
:1018C400704700BF8C000020014B1868704700BFB0
:1018D4008C00002030B583B00190FFF7F5FF05467A
:1018E400019CB4F1FF3F00D00134FFF7EDFF401B32
:1018F400A042FAD303B030BD7047000030B482B0C8
:101904000023019390F82430012B00F08B800246D1
:10191400012380F824304B68062B29D80568686BAE
:1019240003EB8303053B1F249C4020EA04000C685E
:1019340004FA03F303436B630B68092B38D9156866
:10194400E86803EB43031E3B07249C4020EA0400A1
:101954008C6804FA03F30343EB600B68103B012B20
:1019640034D90020002382F8243002B030BC704700
:101974000C2B0ED80568286B03EB8303233B1F2431
:101984009C4020EA04000C6804FA03F303432B632D
:10199400D2E70568E86A03EB8303413B1F249C40BC
:1019A40020EA04000C6804FA03F30343EB62C3E780
:1019B4001568286903EB430307249C4020EA0400CC
:1019C4008C6804FA03F303432B61C6E713681648D3
:1019D400834205D0936A43F0200393620120C1E758
:1019E400986810F4000F1BD1986840F400009860C8
:1019F4000B68102B01D00020B4E70C4B1B680C497A
:101A0400A1FB03139B0C03EB83035900019102E038
:101A1400019B013B0193019B002BF9D10020A1E71D
:101A240000209FE70220A0E70024014000000020DE
:101A340083DE1B4330B583B00023019303689A68A7
:101A440012F0010F2ED19A6842F001029A60174BEE
:101A54001B68174AA2FB03239B0C019302E0019B22
:101A6400013B0193019B002BF9D10446FFF72CFFA6
:101A7400054623689B6813F0010F11D1FFF724FF7B
:101A8400401B0228F5D9A36A43F01003A362E36A5A
:101A940043F00103E362002384F82430012002E0D0
:101AA400002000E0002003B030BD00BF0000002093
:101AB40083DE1B4390F82430012B6AD010B5044612
:101AC400012380F82430FFF7B5FF024600285BD1DC
:101AD400A36A23F4407323F0010343F48073A362E5
:101AE40023682D498B4227D0A16A21F48011A16279
:101AF400596811F4806F05D0A16A21F4405141F472
:101B04008051A162A16A11F4805F2BD0E16A21F0B7
:101B14000601E162002184F824106FF002011960CB
:101B24002368996801F46021B1F5602F1DD099688C
:101B340041F4801199602AE0A1F58061496811F4AB
:101B4400702FD1D0A16A41F48011A1621349496870
:101B540011F4806FD6D0A16A21F4405141F4805130
:101B6400A162CFE70021E162D4E70B498B4204D0A4
:101B7400996841F4A001996009E0A1F58061496880
:101B840011F4702FD3D1F3E7002384F824301046E6
:101B940010BD022210467047002801400024014075
:101BA40038B503689A6812F0010F01D1002038BDDE
:101BB40004469A6822F001029A60FFF785FE054602
:101BC40023689B6813F0010F0ED0FFF77DFE401BC6
:101BD4000228F5D9A36A43F01003A362E36A43F031
:101BE4000103E3620120E2E70020E0E7002800F0BF
:101BF4008A8070B50446836A002B36D02046FFF7EE
:101C0400CFFFA36A13F0100377D1002875D1A26A1D
:101C140022F4885222F0020242F00202A2626268B6
:101C240025683A498D4226D0E1690A43E66842EACA
:101C34004602A168B1F5807F27D0012922D06169CD
:101C4400012925D0696821F469410B436B6021683F
:101C54008D682F4B2B4013438B60A368B3F5807FB3
:101C640027D0012B25D0002126E0C36280F8243040
:101C7400FFF742FEC2E7E169B1F5402FD5D14FF439
:101C84000021D2E74FF48073D9E74FF48073D6E78D
:101C940036B9A169013943EA413343F40063D1E71A
:101CA400A16A41F02001A162E16A41F00101E1620F
:101CB400C8E72369013B19052568EB6A23F470031F
:101CC4000B43EB6223689968124B0B409A420BD08A
:101CD400A36A23F0120343F01003A362E36A43F000
:101CE4000103E36201200DE00023E362A36A23F011
:101CF400030343F00103A36204E0A36A43F0100367
:101D0400A362012070BD0120704700BF003C014068
:101D1400FDF7E1FFFE0E1FFF0268D36823F0C00346
:101D2400D360202380F8393070470268D36823F4E5
:101D34009073D3600268536923F001035361202335
:101D440080F83A30704700002DE9F84305460268F0
:101D5400136923F44053C1680B4313618368026918
:101D64001343426913430168CA6822F4B05222F053
:101D74000C021343CB600268536923F440738169F6
:101D84000B4353610268594B9A4257D0FFF740F80E
:101D940000EB800000EB80006C68A400B0FBF4F45E
:101DA400534FA7FB043464092601FFF731F800EB15
:101DB400800000EB80006C68A400B0FBF4F9FFF72E
:101DC40027F800EB800000EB80006C68A400B0FBF7
:101DD400F4F4A7FB043464094FF0640808FB14947A
:101DE40024013234A7FB0434640904F0F0043444BD
:101DF400FFF70EF800EB800000EB80006E68B60081
:101E0400B0FBF6F6FFF704F800EB800000EB80006F
:101E14006B689B00B0FBF3F0A7FB0030400908FBA4
:101E240010684FEA081808F13208A7FB0837C7F30F
:101E340043172B6827449F60BDE8F883FEF7F8FF3B
:101E440000EB800000EB80006C68A400B0FBF4F4AD
:101E5400274FA7FB043464092601FEF7E9FF00EBD2
:101E6400800000EB80006C68A400B0FBF4F9FEF77E
:101E7400DFFF00EB800000EB80006C68A400B0FB87
:101E8400F4F4A7FB043464094FF0640808FB1494C9
:101E940024013234A7FB0434640904F0F00434440C
:101EA400FEF7C6FF00EB800000EB80006E68B60012
:101EB400B0FBF6F6FEF7BCFF00EB800000EB800001
:101EC4006B689B00B0FBF3F0A7FB0030400908FBF4
:101ED40010684FEA081808F13208A7FB0837C7F35F
:101EE40043172B6827449F60A6E700BF00380140D2
:101EF4001F85EB51704758B310B5044690F839303C
:101F04000BB3242384F839302268D36823F40053B4
:101F1400D3602046FFF718FF2268136923F4904327
:101F240013612268536923F02A0353612268D3683A
:101F340043F40053D3600020E063202384F8393055
:101F440084F83A3010BD80F83830FFF7D3FFD8E773
:101F54000120704730B583B090F83A40E4B2202CA9
:101F64003DD100293ED0002A3ED090F83830012BD4
:101F74003CD013460A460446012180F83810826298
:101F840083850025C563222180F83A10416B1848E7
:101F94008862616B1748C862616B17480863616B9C
:101FA4004D6321680431606B00F0E0F8019523680B
:101FB4001A6801925A680192019A84F83850DA68D2
:101FC40042F48072DA602268536943F0010353617A
:101FD4002268536943F040035361284600E002201D
:101FE40003B030BD0120FBE70120F9E70220F7E749
:101FF40001200008412000084D20000808B5436A6C
:102004000268126812F0200F13D10022DA851968D1
:10201400CA6822F48072CA6019684A6922F001020F
:102024004A6119684A6922F040024A61202283F811
:102034003A20184600F00EFE08BD704708B5406A05
:10204400FFF7FBFF08BD704710B5446A23685A695F
:1020540094F83930DBB2212B10D023685A6902F08E
:10206400400294F83A30DBB2222B11D0E36B43F0F8
:102074001003E3632046FFF7E6FF10BD02F0800281
:10208400002AEAD00023E3842046FFF745FEE4E774
:10209400002AEBD00023E3852046FFF746FEE5E760
:1020A40070B4066CC56B0124B4406C600468636052
:1020B4004368102B05D0036899600368DA6070BC2C
:1020C400704703689A600368D960F8E700283FD036
:1020D40010B4034601681F4A91422ED81E4A0A448E
:1020E4001E49A1FB02121209920002641C4AC26337
:1020F400022283F821201868016821F47F5121F01D
:1021040030015A689C682243DC6822431C692243DC
:102114005C6922439C692243DC6922430A430260CE
:1021240000209862D862186358639863012283F888
:10213400212083F8200010BC70470A4A0A4407494A
:10214400A1FB0212120992000264074AC263CFE79C
:102154000120704707040240F8FFFDBFCDCCCCCC72
:1021640000000240F8FBFDBF0004024038B590F8BF
:102174002040012C32D0012480F8204090F82140E6
:10218400012C04D0002380F82030022038BD0446FE
:10219400022084F821000020A0632568286820F02C
:1021A400010028602046FFF77BFFE36A5BB12268E9
:1021B400136843F00E0313602268136843F00103AD
:1021C40013600020E2E72268136823F0040313601D
:1021D4002268136843F00A031360EDE70220D5E791
:1021E40038B5C36B1A6804682568016C04238B40F6
:1021F400134200F09B8015F0040F00F097802368D1
:1022040013F0200F03D1236823F004032360036831
:10221400AA4A934246D9783A934224D0143293423C
:1022240028D01432934227D01432934227D0143248
:10223400934227D01432934227D01432934227D0AA
:1022440002F56272934226D01432934225D014329E
:10225400934224D01432934202D04FF4802203E0FC
:102264004FF4804200E00422954B5A60C36A03B1E4
:10227400984738BD4022F7E74FF48062F4E74FF403
:102284008042F1E74FF48022EEE74FF48002EBE75F
:102294004FF08062E8E70422E6E74022E4E74FF4E7
:1022A4008062E1E7874A934224D01432934225D0D6
:1022B4001432934224D01432934224D014329342E1
:1022C40024D01432934224D01432934224D002F501
:1022D4006272934223D01432934222D01432934236
:1022E40021D01432934202D04FF4802203E04FF401
:1022F400804200E00422744B5A60B7E74022FAE7B8
:102304004FF48062F7E74FF48042F4E74FF4802201
:10231400F1E74FF48002EEE74FF08062EBE704222E
:10232400E9E74022E7E74FF48062E4E702238B40C9
:10233400134200F0A38015F0020F00F09F80236881
:1023440013F0200F06D1236823F00A03236001232E
:1023540080F821300368594A93424BD9783A934222
:1023640024D0143293422DD0143293422CD0143200
:1023740093422CD0143293422CD0143293422CD05A
:10238400143293422CD002F5627293422BD0143251
:1023940093422AD01432934229D01432934202D069
:1023A4004FF4003203E04FF4005200E00222444BA9
:1023B4005A60002380F82030836A002B3FF459AF21
:1023C400984756E72022F2E74FF40072EFE74FF404
:1023D4000052ECE74FF40032E9E74FF40012E6E76D
:1023E4004FF00072E3E70222E1E72022DFE74FF437
:1023F4000072DCE7334A934224D01432934225D04E
:102404001432934224D01432934224D0143293428F
:1024140024D01432934224D01432934224D002F5AF
:102424006272934223D01432934222D014329342E4
:1024340021D01432934202D04FF4003203E04FF41F
:10244400005200E00222204B5A60B2E72022FAE751
:102454004FF40072F7E74FF40052F4E74FF4003200
:10246400F1E74FF40012EEE74FF00072EBE70222BF
:10247400E9E72022E7E74FF40072E4E7082303FAD0
:1024840001F111423FF4F5AE15F0080F3FF4F1AE3F
:10249400236823F00E032360026CC16B012303FA4B
:1024A40002F24A60836380F82130002380F82030F0
:1024B400036B002B3FF4DDAE9847DAE68000024060
:1024C4000004024008000240000002400F4B1A685A
:1024D40042F001021A6059680D4A0A405A601A68AB
:1024E40022F0847222F480321A601A6822F4802264
:1024F4001A605A6822F4FE025A604FF41F029A606E
:10250400044B4FF000629A60704700BF0010024015
:102514000000FFF800ED00E0F0B589B03E4EF3692D
:1025240043F40033F361F36903F400330093009B35
:10253400062205211020FEF795FF1020FEF7C6FFA6
:10254400072205211120FEF78DFF1120FEF7BEFFA3
:10255400324D334B2B604FF4E1336B600024AC609D
:10256400EC602C610C236B61AC612846FFF7C3FC63
:10257400736943F001037361736903F00103019309
:10258400019BB36943F00403B361B36903F004032B
:102594000293029BF36943F40033F361F36903F498
:1025A40000330393039B0123069304230493022320
:1025B400059303230793A6F5843604A93046FEF752
:1025C400BDFF08230493059404A93046FEF7B6FF23
:1025D400144E154B33607460B4608027F760346127
:1025E40074612023B361F4613046FFF76FFD6E63BD
:1025F40075620E4E0E4B336010237360B460F76047
:1026040034617461B461F4613046FFF75FFD2E6399
:10261400756209B0F0BD00BF00100240A80200209E
:1026240000440040900000206C0002405002002052
:10263400800002402DE9F04F89B07B4B9A6942F04B
:1026440004029A619A6902F004020192019A9A6959
:1026540042F008029A619A6902F008020292029A10
:102664009A6942F010029A619B6903F01003039384
:10267400039B002305930693022707974FF0200A34
:102684000DEB0A0444F810AD21466848FEF756FFE6
:102694004023049321466548FEF750FF80250495A6
:1026A40021466248FEF74AFF4FF4806304932146B3
:1026B4005F48FEF743FF4FF40063049321465C48F0
:1026C400FEF73CFF4FF48056049621465848FEF727
:1026D40035FF049621465748FEF730FF04972146FC
:1026E4005448FEF72BFF4FF00108CDF814804FF04B
:1026F4000409CDF8109021464C48FEF71FFF102620
:10270400049621464B48FEF719FFCDF810A0214648
:102714004848FEF713FF03230593CDF810802146A4
:102724004348FEF70BFFCDF8108021464148FEF7E1
:1027340005FF4FF0080BCDF810B021463C48FEF7DA
:10274400FDFE049721463A48FEF7F8FE049621461A
:102754003748FEF7F3FECDF810A021463448FEF7C3
:10276400EDFECDF8109021463148FEF7E7FECDF896
:1027740010B021462F48FEF7E1FECDF81090214617
:102784002C48FEF7DBFE0597402304932146284896
:10279400FEF7D4FE049521462548FEF7CFFE4FF4FC
:1027A4008079CDF8109021462148FEF7C7FE0495A4
:1027B40021462048FEF7C2FECDF8108021461B4872
:1027C400FEF7BCFE049721461848FEF7B7FECDF885
:1027D400109021461748FEF7B1FE4FF4007304939E
:1027E40021461448FEF7AAFE4FF480630493214661
:1027F4001048FEF7A3FE4FF40053049321460B4800
:10280400FEF79CFE4FF48043049321460748FEF7ED
:1028140095FE4FF40043049321460448FEF78EFED0
:1028240009B0BDE8F08F00BF00100240000C014069
:1028340000100140000801402DE9F04F99B0754B9C
:102844009A6942F400629A619A6902F40062019200
:10285400019A9A6942F400529A619B6903F4005305
:102864000293029B6C4EDFF8B891C6F800900024E6
:1028740074604FF02008C6F808804FF4FA6BC6F86D
:102884000CB034617461B4613046FEF74DFC102322
:102894001693179416A93046FEF77CFD60230F9318
:1028A4001094119408271297139414944FF40073FE
:1028B400159322460FA93046FEF788FC04220FA97F
:1028C4003046FEF783FC3A460FA93046FEF77EFCFD
:1028D4004FF4006308934FF4806309930A94CDF88E
:1028E4002C800C940D940E940DEB08013046FEF7E9
:1028F40025FD4A4DDFF82CA1C5F800A06C60C5F891
:102904000880C5F80CB02C616C61AC612846FEF7F8
:102914000BFCCDF858808023179316A92846FEF7A0
:1029240039FD049418A9052341F8543D2846FEF7BF
:102934008EFB60230F9310941194129713941494A4
:102944004FF40073159322460FA92846FEF73EFC68
:1029540004220FA92846FEF739FC3A460FA9284657
:10296400FEF734FC4FF4006308934FF4806309933B
:102974000A94CDF82C800C940D940E940DEB080160
:102984002846FEF7DBFCDAF8443023F40043CAF8A7
:102994004430D9F8443023F40043C9F84430214684
:1029A4002846FEF78FFC04212846FEF78BFC3946A7
:1029B4002846FEF787FC21462846FEF7ADFC042195
:1029C4002846FEF7A9FC39462846FEF7A5FC214611
:1029D4003046FEF777FC04213046FEF773FC394697
:1029E4003046FEF76FFC21463046FEF795FC042185
:1029F4003046FEF791FC39463046FEF78DFC2B68D5
:102A040001221A633268136843F00103136019B09A
:102A1400BDE8F08F0010024058010020E8020020B9
:102A2400002C0140003401402DE9F04186B0424EB3
:102A3400B36943F40073B361B36903F4007300939F
:102A4400009B3E4C3E4B23604FF48073A3600025F3
:102A5400E56065614FF44023E36165604FF005086C
:102A6400C4F810802046FFF7C1F8364A536843F48F
:102A74008023536006A94FF4C02341F8043D204647
:102A8400FEF7B2FC012304930E220292039302A9DF
:102A94002046FEF733FF02950227039702A920463A
:102AA400FEF72CFF04970B2702970323039302A935
:102AB4002046FEF723FF0C2302930423039302A969
:102AC4002046FEF71BFF0723049310230293CDF83F
:102AD4000C8002A92046FEF711FF2268936843F494
:102AE400000343F480739360936843F0010393609D
:102AF400736943F001037361736903F00103019384
:102B0400019B114B1D60C3F80480104A9A60104A5F
:102B1400DA6040F6A2221A601A6842F001021A60D2
:102B24002A4629463846FEF79DFC3846FEF7CEFC79
:102B340006B0BDE8F08100BF001002402002002072
:102B44000024014000000140080002404C240140E0
:102B540094020020F0B585B0284B9A6942F4806253
:102B64009A619B6903F480630093009B244C254B7A
:102B740023604FF48073A3600023E36063614FF428
:102B84006022E2616360052626612046FFF72EF885
:102B9400012303930F220192029301A92046FEF719
:102BA400ADFE0D2301930225029501A92046FEF7EF
:102BB400A5FE03950A2301930327029701A9204642
:102BC400FEF79CFE0195042302930DEB03012046BE
:102BD400FEF794FE072303930197029601A920466A
:102BE400FEF78CFE23689A6842F480729A609A68B1
:102BF40042F001029A6005B0F0BD00BF001002402F
:102C0400D4000020002801400D4B1B681333262BF1
:102C140014D810B500240B4B1C700B4B1C7005E032
:102C24000A4B1C706420FEF755FE0134072CF7DDB7
:102C3400002220210648FEF780FDFEE7704700BF12
:102C440044030020480000205000002044000020DD
:102C54000008014008B50C4B1B881BB2012B05D0A2
:102C6400094B1B881BB2022B0AD008BD064A5188A7
:102C7400064B598092881A80054B00221A60F4E7AB
:102C8400FFF7C2FFF1E700BF300300202C03002050
:102C94004000002030B597B002250C950123109315
:102CA400102311931395002414944FF46013159377
:102CB4000CA8FDF7C5FD0F230793089509944FF45D
:102CC40080630A930B94294607A8FDF7DFFF01955B
:102CD4004FF44043039301A8FEF73AFDFEF792F840
:102CE400084BA3FB00308009FEF7FCFB0420FEF731
:102CF4000FFC224621464FF0FF30FEF7B3FB17B01E
:102D040030BD00BFD34D6210F0B583B0FEF7C2FDF5
:102D1400A74CA36943F00103A361A36903F0010372
:102D24000193019B0320FEF78BFB002211466FF0F9
:102D34000B00FEF797FB002211466FF00A00FEF726
:102D440091FB002211466FF00900FEF78BFB002275
:102D540011466FF00400FEF785FB002211466FF068
:102D64000300FEF77FFB002211466FF00100FEF71F
:102D740079FB002211464FF0FF30FEF773FBFFF79B
:102D840089FF636923F001036361FFF753FCFFF7D5
:102D940053FDFFF749FEFFF7DDFE012220218548A0
:102DA400FEF7CBFC8448FEF785FE8448FEF782FEDE
:102DB400082405E0824B1C706420FEF78BFD013C67
:102DC400002CF7DA7E4B00221A70012204217D4880
:102DD400FEF7B3FCFFF7A0FB06227B497B48FFF715
:102DE400B9F87B4B1B8A7B4B01221A70ACE04FF481
:102DF4007A74794B1C60794B5B881BB2B3F57A7F8C
:102E04000BDC764B5B881BB213F57A7F5CDB734B70
:102E14005D882DB203E0724CEBE74FF47A75714B89
:102E24001D60714B00221A60704E3068FDF7B2FAD3
:102E34006F49FDF703FB07462046FDF7ABFA6D49E2
:102E4400FDF7FCFA01463846FDF7F0F9FDF7BCFC46
:102E540004463060684E3068FDF79CFA6449FDF71B
:102E6400EDFA07462846FDF795FA6249FDF7E6FABA
:102E740001463846FDF7DAF9FDF7A6FC3060B4F5F3
:102E84007A7F23DC564B9C42B8BF1C46B0F57A7F50
:102E94001FDC534B9842B8BF184680EAE075A5EB97
:102EA400E075B5F52F7F17DD84EAE473A3EBE473D3
:102EB400B3F52F7F10DDA5F2262250490A60A3F254
:102EC40026234F4A13600CE0454DA8E74FF47A746B
:102ED400DCE74FF47A70E0E70023484A1360484A7D
:102EE4001360484B1C60484B1860484B1A68484BA9
:102EF400A3FB0213DB0803EB830303EB83039A4274
:102F040001D1334B1B8A02212A48FEF70FFC30B152
:102F14003B4B1B681BB9394B1B68002B34D0002377
:102F2400274A13703B4A1370322D05DC84EAE4709F
:102F3400A0EBE470322833DD344B00221A60334BAB
:102F44001A68354B9A4230D80520FEF7C3FC334B40
:102F54001A6801321A601B68782B03DD1F4B0022AC
:102F64001A805A801D4B1B881BB2B3F57A7F3FF73A
:102F74003EAF1A4B1B881BB213F57A7FFFF64BAF9B
:102F8400164B1C8824B234E7124B00221A7002211B
:102F94000848FEF7CBFB0028F9D1FFF735FEBEE762
:102FA4001A4A136801331360C9E7FFF72DFECBE714
:102FB400001002400008014020020020D40000203C
:102FC40044000020000C014030030020A80200202F
:102FD40094020020500000204C0300202C03002009
:102FE40018FCFFFF38030020040000203C030020ED
:102FF4003333733FCDCC4C3D440300208400002088
:10300400880000207C000020780000202803002095
:103014001F85EB514800002080380100400000204B
:10302400624B02225A60624B1B68B3F57A7F4BDB1A
:103034002DE9F0415F4B1C685F4BA3FB04239B0904
:103044004FF47A7202FB1343A3B95C4D5C492868C0
:10305400FDF7F4F906465B4B9889FDF797F95A4951
:10306400FDF7ECF95949FDF7E9F901463046FDF75A
:10307400DDF82860534B5889554B1D68401BFDF7FC
:1030840089F95449FDF7DAF90021FDF775FB0028A9
:103094004FD14C4B5889401BFDF77CF94D49FDF746
:1030A400CDF94D49FDF786FB00284FD14B4B1B68EA
:1030B400052B4BD84A4B1B78002B47D0494A536CFD
:1030C40043F40043536446E00133394A13603D4AF4
:1030D400908845490B68034403EBD3735B100B6082
:1030E400D08842490B68034403EBD3735B100B6035
:1030F40010883F490B68034403EBD3735B100B60E8
:1031040050883C490B68034403EBD3735B100B609A
:1031140050892F490B68034403EBD3735B100B6096
:103124001189354A13680B4403EBD3735B101360A6
:103134007047244B5889401BFDF72CF92549FDF7AE
:103144007DF92E49FDF718FB0028AFD0254A536CB2
:1031540023F4004353641B4B1889274B1D68401B01
:10316400FDF718F91B49FDF769F90021FDF704FB88
:10317400002847D1134B1889401BFDF70BF915495B
:10318400FDF75CF91449FDF715FB002847D1134BF3
:103194001B68052B43D8124B1B78002B3FD0184AD1
:1031A400536C43F4004353643EE000BF000002400C
:1031B4006C0000204C000020D34D62100800002059
:1031C400A4707D3F9402002017B9CE3C0AD7233C5B
:1031D4000C0000200AD7A33C00007041040000202A
:1031E400500000200034014014000020180000208A
:1031F4001C0000202000002010000020000070C1EE
:10320400002C0140924B1889401BFDF7C3F89149EB
:10321400FDF714F99049FDF7AFFA0028B7D08F4AAB
:10322400536C23F4004353648D498B6813F0200FCF
:103234000CBF012300238A6812F0400F0CBF012247
:103244000022896811F0800F0CBF012600268548F2
:10325400816811F4806F0CBF01210021856815F489
:10326400006F0CBF01250025806810F4805F02EB1D
:10327400460203EB42037C4FFB5C7C48036003681B
:1032840003F1020303600668794B83FB06C2A2EBD9
:10329400E67202EB42024FEA420CA6EB0C02026019
:1032A4000CBF022200222A4401EB4202BA5C71499B
:1032B4000A600A6802320A600A6883FB0253A3EBBD
:1032C400E27303EB43035D00531B0B6002686A4E19
:1032D4003368D21A0B68694D2F68DB1B00683060B5
:1032E40009682960032A00DD063A12F1030F00DAA7
:1032F4000632032B00DD063B13F1030F00DA06331D
:103304005F49086802440A605E49086803440B6028
:103314005D48016801310160B1F57A7F10DB014637
:1033240000200860594D2968511A09B25848018093
:1033340058480168591A09B2574E31802A6003600F
:103344000134564B1C60564B1868A8B1554BA3FB6F
:1033540004231B0B544A12680132B3FBF2F102FB43
:1033640011334BB9B4FBF0F300FB13444CB91021F7
:103374004E48FEF7E8F904E0002210214B48FEF71E
:10338400DCF94B4B1D68394B1B68052B24D8DFE84F
:1033940003F0031115191D2068422C461D46454BA8
:1033A4001968344B1B68052B4DD8DFE803F0193A34
:1033B4003E4246492C466D420020F0E728466D42C5
:1033C4000024ECE76C4228460025E8E76C42002024
:1033D400E5E768420024E2E7002004460546DEE70C
:1033E4004E420F461946324B1B68002B40F3A48013
:1033F400314B1A681D4B1B6803F1050C1C4B83FBF6
:103404000CE3A3EBEC7303EB43034FEA430EACEB87
:103414000E03052B00F2C580DFE803F050757A7FB8
:1034240084890F4649420026DDE70E4649420027BB
:10343400D9E74F420E460021D5E74F420026D2E796
:103444004E420027CFE7002637463146CBE700BF80
:10345400940200200AD7A33C000070C1002C014054
:10346400000C014000100140583800087000002092
:10347400ABAAAA2A7400002064000020680000207F
:103484005400002058000020800000205C00002030
:103494005203002060000020500300204C00002054
:1034A400440000205917B7D148000020000801400B
:1034B400780000207C00002084000020C2F1000E6F
:1034C40094461A46154464447044954B1B68002B7B
:1034D40040F39B80934B1A68934B1B6803F1050CD4
:1034E400924B83FB0CE3A3EBEC7303EB43034FEA34
:1034F400430EACEB0E03052B00F2BD80DFE803F0B6
:10350400596C71767B80944652424FF0000ED9E795
:10351400964652424FF0000CD4E7C2F1000C964696
:103524000022CFE7C2F1000C4FF0000ECAE7C2F14F
:10353400000E4FF0000CC5E77D4B1A68C2F1000C79
:103544007C4B1B6803F1010E784B83FB0E83A3EBCA
:10355400EE7303EB43034FEA4308AEEB0803052B7A
:103564001AD8DFE803F00323060A0E1496461A4617
:10357400A8E7E6464FF0000CA4E7E646944600228E
:10358400A0E7134662469C464FF0000E9AE7964623
:1035940062464FF0000C95E74FF0000EF446724679
:1035A40090E74FF0000EF44672468BE74FF0000EA2
:1035B40088E7C2F1000896461A46114407EB0E024A
:1035C40006EB080305F57A7540F2C676B5425ADC77
:1035D4000A2DB8BF0A2558E0964652424FF000081B
:1035E400EBE7904652424FF0000EE6E7C2F1000EC0
:1035F40090460022E1E7C2F1000E4FF00008DCE73C
:10360400C2F100084FF0000ED7E7464B1A68C2F12A
:10361400000E454B1B6803F10108444B83FB083C37
:10362400ACEBE87C0CEB4C0C4FEA4C03A8EB030C22
:10363400BCF1050F1AD8DFE80CF00323060A0E14B8
:1036440090466246B9E7F0464FF0000EB5E7F04603
:1036540096460022B1E7134672469E464FF0000894
:10366400ABE7904672464FF0000EA6E74FF0000815
:10367400C6464246A1E74FF00008C64642469CE7CC
:103684004FF0000899E740F2C6752B4E756304F5B8
:103694007A7440F2C675AC4203DC0A2CB8BF0A2423
:1036A40001E040F2C674244DAC6300F57A7040F238
:1036B400C674A04203DC0A28B8BF0A2001E040F225
:1036C400C6701D4CE06301F57A7140F2C670814208
:1036D40003DC0A29B8BF0A2101E040F2C671174889
:1036E400416302F57A7240F2C6718A4203DC0A2A07
:1036F400B8BF0A2201E040F2C67210498A6303F59A
:103704007A7340F2C672934203DC0A2BB8BF0A23D1
:1037140001E040F2C673094AD363BDE8F08100BFFB
:103724007C0000208800002074000020ABAAAA2A94
:10373400840000207000002000340140002C01406F
:103744007047FEE7FEE7FEE7FEE770477047704705
:1037540008B5FEF7B1F8FDF7ECFE08BD08B5024860
:10376400FEF73EFD08BD00BF9000002008B50248EA
:10377400FEF736FD08BD00BF50020020002103E023
:103784000B4B5B58435004310A480B4B42189A4286
:10379400F6D30A4A02E0002342F8043B084B9A425B
:1037A400F9D3FEF793FE00F00FF8FFF7ADFA704778
:1037B40068380008000000202400002024000020B5
:1037C40054030020FEE7000070B500250C4E0D4C9C
:1037D400A41BA410A54209D100F01AF800250A4E32
:1037E4000A4CA41BA410A54205D170BD56F825307F
:1037F40098470135EEE756F8253098470135F2E74A
:103804006038000860380008603800086438000830
:10381400F8B500BFF8BC08BC9E467047F8B500BFB9
:08382400F8BC08BC9E46704789
:10382C0002030405060708090A0B0C0D0E0F1010F5
:10383C00010200000000000000000000010203046F
:10384C000607080900000000010203040000020141
:04385C00040503005C
:043860000902000851
:04386400E501000872
:1038680000A24A046400000000002042D0070000C3
:10387800D0070000D0070000D0070000D0070000E4
:04388800D007000065
:040000050800378137
:00000001FF
