:020000040800F2
:1000000000C00020B5400008794000087B4000088F
:100010007D4000087F40000881400008000000008B
:100020000000000000000000000000008340000805
:100030008540000800000000874000088940000853
:10004000FD400008FD400008FD400008FD4000089C
:10005000FD400008FD400008FD400008FD4000088C
:10006000FD400008FD400008FD400008313900084F
:10007000FD400008FD400008FD400008FD4000086C
:1000800095400008A5400008FD400008FD4000081C
:10009000FD400008FD400008FD400008FD4000084C
:1000A000FD400008FD400008FD400008FD4000083C
:1000B000FD400008FD400008FD400008FD4000082C
:1000C000FD400008FD400008FD400008FD4000081C
:1000D000FD400008FD400008FD400008FD4000080C
:1000E000FD400008FD400008FD400008FD400008FC
:1000F000FD400008FD400008FD400008FD400008EC
:10010000FD400008FD400008FD400008FD400008DB
:10011000FD400008FD400008FD400008FD400008CB
:10012000FD400008FD400008FD400008FD400008BB
:1001300000000000000000000000000000000000BF
:1001400000000000000000000000000000000000AF
:10015000000000000000000000000000000000009F
:10016000000000000000000000000000000000008F
:10017000000000000000000000000000000000007F
:10018000000000000000000000000000000000006F
:10019000000000000000000000000000000000005F
:1001A000000000000000000000000000000000004F
:1001B000000000000000000000000000000000003F
:1001C000000000000000000000000000000000002F
:1001D000000000000000000000000000000000001F
:0401E0005FF8E0F1F3
:1001E8000348044B834202D0034B03B118477047BE
:1001F80024000020240000200000000005480649D3
:10020800091A891001EBD171491002D0034B03B1CF
:100218001847704724000020240000200000000038
:1002280010B5064C237843B9FFF7DAFF044B13B136
:100238000448AFF300800123237010BD2400002080
:10024800000000000041000808B5044B1BB1044938
:100258000448AFF30080BDE80840CFE70000000085
:10026800280000200041000870B50D4E0D4D761B8A
:10027800B61006D00024013455F8043B9847A6422E
:10028800F9D1094E094D03F037FF761BB61006D099
:100298000024013455F8043B9847A642F9D170BDB3
:1002A8004C4100084C410008504100084C410008EE
:1002B80081F0004102E000BF83F0004330B54FEA0F
:1002C80041044FEA430594EA050F08BF90EA020F7C
:1002D8001FBF54EA000C55EA020C7FEA645C7FEA0F
:1002E800655C00F0E2804FEA5454D4EB5555B8BF32
:1002F8006D420CDD2C4480EA020281EA030382EAA3
:10030800000083EA010180EA020281EA0303362D34
:1003180088BF30BD11F0004F4FEA01314FF4801C07
:100328004CEA113102D0404261EB410113F0004F19
:100338004FEA03334CEA133302D0524263EB4303D0
:1003480094EA050F00F0A780A4F10104D5F1200E6E
:100358000DDB02FA0EFC22FA05F2801841F10001C9
:1003680003FA0EF2801843FA05F359410EE0A5F19D
:1003780020050EF1200E012A03FA0EFC28BF4CF0CE
:10038800020C43FA05F3C01851EBE37101F0004584
:1003980007D54FF0000EDCF1000C7EEB00006EEB91
:1003A8000101B1F5801F1BD3B1F5001F0CD349081B
:1003B8005FEA30004FEA3C0C04F101044FEA445272
:1003C80012F5800F80F09A80BCF1004F08BF5FEAF9
:1003D800500C50F1000041EB045141EA050130BDD9
:1003E8005FEA4C0C404141EB010111F4801FA4F17C
:1003F8000104E9D191F0000F04BF01460020B1FAD1
:1004080081F308BF2033A3F10B03B3F120020CDA08
:100418000C3208DD02F1140CC2F10C0201FA0CF0E6
:1004280021FA02F10CE002F11402D8BFC2F1200C4B
:1004380001FA02F120FA0CFCDCBF41EA0C01904001
:10044800E41AA2BF01EB0451294330BD6FEA04044A
:100458001F3C1CDA0C340EDC04F11404C4F1200235
:1004680020FA04F001FA02F340EA030021FA04F347
:1004780045EA030130BDC4F10C04C4F1200220FA9E
:1004880002F001FA04F340EA0300294630BD21FADC
:1004980004F0294630BD94F0000F83F4801306BFA2
:1004A80081F480110134013D4EE77FEA645C18BF96
:1004B8007FEA655C29D094EA050F08BF90EA020F2D
:1004C80005D054EA000C04BF1946104630BD91EA25
:1004D800030F1EBF0021002030BD5FEA545C05D128
:1004E8004000494128BF41F0004130BD14F5800467
:1004F8003CBF01F5801130BD01F0004545F0FE41DB
:1005080041F470014FF0000030BD7FEA645C1ABF0F
:10051800194610467FEA655C1CBF0B46024650EA46
:10052800013406BF52EA033591EA030F41F4002172
:1005380030BD00BF90F0000F04BF0021704730B5F8
:100548004FF4806404F132044FF000054FF00001CD
:1005580050E700BF90F0000F04BF0021704730B58E
:100568004FF4806404F1320410F0004548BF404263
:100578004FF000013EE700BF42004FEAE2014FEAB8
:1005880031014FEA02701FBF12F07F4393F07F4F93
:1005980081F06051704732F07F4208BF704793F096
:1005A8007F4F04BF41F40021704730B54FF46074A9
:1005B80001F0004521F000411CE700BF50EA0102AC
:1005C80008BF704730B54FF000050AE050EA010255
:1005D80008BF704730B511F0004502D5404261EBC5
:1005E80041014FF4806404F132045FEA915C3FF406
:1005F800D8AE4FF003025FEADC0C18BF03325FEAA3
:10060800DC0C18BF033202EBDC02C2F1200300FA53
:1006180003FC20FA02F001FA03FE40EA0E0021FA78
:1006280002F11444BDE600BF70B54FF0FF0C4CF466
:10063800E06C1CEA11541DBF1CEA135594EA0C0F18
:1006480095EA0C0F00F0DEF82C4481EA030621EA53
:100658004C5123EA4C5350EA013518BF52EA03358E
:1006680041F4801143F4801338D0A0FB02CE4FF040
:100678000005E1FB02E506F00042E0FB03E54FF070
:100688000006E1FB03569CF0000F18BF4EF0010E68
:10069800A4F1FF04B6F5007F64F5407404D25FEA64
:1006A8004E0E6D4146EB060642EAC62141EA555117
:1006B8004FEAC52040EA5E504FEACE2EB4F1FD0C59
:1006C80088BFBCF5E06F1ED8BEF1004F08BF5FEAD7
:1006D800500E50F1000041EB045170BD06F0004689
:1006E80046EA010140EA020081EA0301B4EB5C0436
:1006F800C2BFD4EB0C0541EA045170BD41F480112E
:100708004FF0000E013C00F3AB8014F1360FDEBF52
:10071800002001F0004170BDC4F10004203C35DA2E
:100728000C341BDC04F11404C4F1200500FA05F3B1
:1007380020FA04F001FA05F240EA020001F0004252
:1007480021F0004110EBD37021FA04F642EB0601C8
:100758005EEA430E08BF20EAD37070BDC4F10C04F2
:10076800C4F1200500FA04F320FA05F001FA04F2B6
:1007780040EA020001F0004110EBD37041F10001A2
:100788005EEA430E08BF20EAD37070BDC4F12005AD
:1007980000FA05F24EEA020E20FA04F301FA05F215
:1007A80043EA020321FA04F001F0004121FA04F2BD
:1007B80020EA020000EBD3705EEA430E08BF20EA8D
:1007C800D37070BD94F0000F0FD101F000464000C7
:1007D80041EB010111F4801F08BF013CF7D041EA49
:1007E800060195F0000F18BF704703F0004652004D
:1007F80043EB030313F4801F08BF013DF7D043EA1E
:100808000603704794EA0C0F0CEA135518BF95EAD3
:100818000C0F0CD050EA410618BF52EA4306D1D15A
:1008280081EA030101F000414FF0000070BD50EA79
:10083800410606BF1046194652EA430619D094EA03
:100848000C0F02D150EA013613D195EA0C0F05D1ED
:1008580052EA03361CBF104619460AD181EA030141
:1008680001F0004141F0FE4141F470014FF00000F9
:1008780070BD41F0FE4141F4780170BD70B54FF094
:10088800FF0C4CF4E06C1CEA11541DBF1CEA135514
:1008980094EA0C0F95EA0C0F00F0A7F8A4EB0504F6
:1008A80081EA030E52EA03354FEA013100F08880ED
:1008B8004FEA03334FF0805545EA131343EA1263B6
:1008C8004FEA022245EA111545EA10654FEA00266B
:1008D8000EF000419D4208BF964244F1FD0404F524
:1008E800407402D25B084FEA3202B61A65EB030580
:1008F8005B084FEA32024FF480104FF4002CB6EB3D
:10090800020E75EB030E22BFB61A754640EA0C00BC
:100918005B084FEA3202B6EB020E75EB030E22BFFC
:10092800B61A754640EA5C005B084FEA3202B6EB3D
:10093800020E75EB030E22BFB61A754640EA9C00FC
:100948005B084FEA3202B6EB020E75EB030E22BFCC
:10095800B61A754640EADC0055EA060E18D04FEA8A
:10096800051545EA16754FEA06164FEAC30343EA2A
:1009780052734FEAC2025FEA1C1CC0D111F4801FF7
:100988000BD141EA00014FF000004FF0004CB6E7F0
:1009980011F4801F04BF01430020B4F1FD0C88BF8F
:1009A800BCF5E06F3FF6AFAEB5EB030C04BFB6EB9A
:1009B800020C5FEA500C50F1000041EB045170BD8D
:1009C8000EF0004E4EEA113114EB5C04C2BFD4EBBA
:1009D8000C0541EA045170BD41F480114FF0000E3E
:1009E800013C90E645EA060E8DE60CEA135594EABA
:1009F8000C0F08BF95EA0C0F3FF43BAF94EA0C0FBD
:100A08000AD150EA01347FF434AF95EA0C0F7FF431
:100A180025AF104619462CE795EA0C0F06D152EA85
:100A280003353FF4FDAE1046194622E750EA410669
:100A380018BF52EA43067FF4C5AE50EA41047FF47A
:100A48000DAF52EA43057FF4EBAE12E74FF0FF3CDF
:100A580006E000BF4FF0010C02E000BF4FF0010CB0
:100A68004DF804CD4FEA410C7FEA6C5C4FEA430C29
:100A780018BF7FEA6C5C1BD001B050EA410C0CBF78
:100A880052EA430C91EA030F02BF90EA020F0020DA
:100A9800704710F1000F91EA030F58BF994208BF41
:100AA80090422CBFD8176FEAE37040F001007047FE
:100AB8004FEA410C7FEA6C5C02D150EA013C07D155
:100AC8004FEA430C7FEA6C5CD6D152EA033CD3D0A0
:100AD8005DF8040B704700BF8446104662468C469A
:100AE8001946634600E000BF01B5FFF7B7FF0028CD
:100AF80048BF10F1000F01BD4DF808EDFFF7F4FFF6
:100B08000CBF012000205DF808FB00BF4DF808ED80
:100B1800FFF7EAFF34BF012000205DF808FB00BFA3
:100B28004DF808EDFFF7E0FF94BF012000205DF8C5
:100B380008FB00BF4DF808EDFFF7CEFF94BF01207A
:100B480000205DF808FB00BF4DF808EDFFF7C4FF73
:100B580034BF012000205DF808FB00BF4FEA4102C6
:100B680012F5001215D211D56FF47873B3EB6252F7
:100B780012D94FEAC12343F0004343EA505311F01E
:100B8800004F23FA02F018BF404270474FF00000B0
:100B9800704750EA013005D111F0004008BF6FF0EE
:100BA800004070474FF00000704700BF4FEA410215
:100BB800B2F1E04324BFB3F5001CDCF1FE5C0DD9B3
:100BC80001F0004C4FEAC0024CEA5070B2F1004FFD
:100BD80040EB830008BF20F00100704711F0804F00
:100BE80021D113F13872BCBF01F00040704741F4C5
:100BF80080114FEA5252C2F11802C2F1200C10FAC9
:100C08000CF320FA02F018BF40F001004FEAC123AC
:100C18004FEAD32303FA0CFC40EA0C0023FA02F350
:100C28004FEA4303CCE77FEA625307D150EA013326
:100C38001EBF4FF0FE4040F44000704701F00040F6
:100C480040F0FE4040F40000704700BF80F00040D4
:100C580002E000BF81F0004142001FBF5FEA41038C
:100C680092EA030F7FEA226C7FEA236C6AD04FEA8C
:100C78001262D2EB1363C1BFD218414048404140D1
:100C8800B8BF5B42192B88BF704710F0004F40F483
:100C9800000020F07F4018BF404211F0004F41F49F
:100CA800000121F07F4118BF494292EA030F3FD06B
:100CB800A2F1010241FA03FC10EB0C00C3F120037E
:100CC80001FA03F100F0004302D5494260EB40000D
:100CD800B0F5000F13D3B0F1807F06D340084FEA78
:100CE800310102F10102FE2A51D2B1F1004F40EB6D
:100CF800C25008BF20F0010040EA030070474900D5
:100D080040EB000010F4000FA2F10102EDD1B0FA9F
:100D180080FCACF1080CB2EB0C0200FA0CF0AABF94
:100D280000EBC25052421843BCBFD0401843704732
:100D380092F0000F81F4000106BF80F40000013238
:100D4800013BB5E74FEA41037FEA226C18BF7FEA0F
:100D5800236C21D092EA030F04D092F0000F08BF51
:100D68000846704790EA010F1CBF0020704712F038
:100D78007F4F04D1400028BF40F00040704712F177
:100D880000723CBF00F50000704700F0004343F0DC
:100D9800FE4040F4000070477FEA226216BF084612
:100DA8007FEA23630146420206BF5FEA412390EAD5
:100DB800010F40F4800070474FF0000304E000BFCB
:100DC80010F0004348BF40425FEA000C08BF70477C
:100DD80043F0964301464FF000001CE050EA010240
:100DE80008BF70474FF000030AE000BF50EA010255
:100DF80008BF704711F0004302D5404261EB410142
:100E08005FEA010C02BF84460146002043F0B64366
:100E180008BFA3F18053A3F50003BCFA8CF2083A8B
:100E2800A3EBC25310DB01FA02FC634400FA02FC94
:100E3800C2F12002BCF1004F20FA02F243EB02009B
:100E480008BF20F00100704702F1200201FA02FCFD
:100E5800C2F1200250EA4C0021FA02F243EB0200F0
:100E680008BF20EADC7070474FF0FF0C1CEAD05234
:100E78001EBF1CEAD15392EA0C0F93EA0C0F6FD0F5
:100E88001A4480EA010C400218BF5FEA41211ED0D3
:100E98004FF0006343EA501043EA5111A0FB0131BF
:100EA8000CF00040B1F5000F3EBF490041EAD37194
:100EB8005B0040EA010062F17F02FD2A1DD8B3F110
:100EC800004F40EBC25008BF20F00100704790F07F
:100ED800000F0CF0004C08BF49024CEA502040EAD1
:100EE80051207F3AC2BFD2F1FF0340EAC250704797
:100EF80040F400004FF00003013A5DDC12F1190FD5
:100F0800DCBF00F000407047C2F10002410021FA46
:100F180002F1C2F1200200FA02FC5FEA310040F15E
:100F2800000053EA4C0308BF20EADC70704792F0D7
:100F3800000F00F0004C02BF400010F4000F013A0F
:100F4800F9D040EA0C0093F0000F01F0004C02BF0A
:100F5800490011F4000F013BF9D041EA0C018FE779
:100F68000CEAD15392EA0C0F18BF93EA0C0F0AD07F
:100F780030F0004C18BF31F0004CD8D180EA0100A5
:100F880000F00040704790F0000F17BF90F0004F3E
:100F9800084691F0000F91F0004F14D092EA0C0F20
:100FA80001D142020FD193EA0C0F03D14B0218BFB3
:100FB800084608D180EA010000F0004040F0FE40F9
:100FC80040F40000704740F0FE4040F44000704795
:100FD8004FF0FF0C1CEAD0521EBF1CEAD15392EA14
:100FE8000C0F93EA0C0F69D0A2EB030280EA010C04
:100FF80049024FEA402037D04FF0805343EA11119D
:1010080043EA10130CF000408B4238BF5B0042F1FA
:101018007D024FF4000C8B4224BF5B1A40EA0C009F
:10102800B3EB510F24BFA3EB510340EA5C00B3EBD1
:10103800910F24BFA3EB910340EA9C00B3EBD10FBF
:1010480024BFA3EBD10340EADC001B0118BF5FEA11
:101058001C1CE0D1FD2A3FF650AF8B4240EBC2503A
:1010680008BF20F0010070470CF0004C4CEA5020FB
:101078007F32C2BFD2F1FF0340EAC250704740F44A
:1010880000004FF00003013A37E792F0000F00F03C
:10109800004C02BF400010F4000F013AF9D040EABA
:1010A8000C0093F0000F01F0004C02BF490011F44E
:1010B800000F013BF9D041EA0C0195E70CEAD15346
:1010C80092EA0C0F08D142027FF47DAF93EA0C0F2D
:1010D8007FF470AF084676E793EA0C0F04D14B0211
:1010E8003FF44CAF08466EE730F0004C18BF31F0C3
:1010F800004CCAD130F000427FF45CAF31F00043BD
:101108007FF43CAF5FE700BF82B0084B1B68084A1A
:10111800A2FB03235B0A00FB03F0019000BF019BC5
:101128005A1E0192002BF9D102B07047000000202E
:10113800D34D621070B582B00446036813F0010FF6
:101148003DD0AC4B5B6803F00C03042B2ED0A94BAD
:101158005B6803F00C03082B23D06368B3F5803F6A
:1011680051D0002B55D103F1804303F504331A689D
:1011780022F480321A601A6822F480221A606368A6
:10118800002B60D001F02CF805469A4B1B6813F42D
:10119800003F14D101F024F8401B6428F5D903203E
:1011A800AFE1944B5B6813F4803FD6D0914B1B683A
:1011B80013F4003F03D06368002B00F09F8123687D
:1011C80013F0020F65D08B4B5B6813F00C0F4ED0F9
:1011D800884B5B6803F00C03082B43D02369002B72
:1011E80079D00122844B1A6000F0FAFF0546814B42
:1011F8001B6813F0020F65D100F0F2FF401B0228B4
:10120800F5D903207DE17B4A136843F480331360EA
:10121800B5E7B3F5A02F09D0764B1A6822F48032CF
:101228001A601A6822F480221A60A8E703F1804342
:10123800A3F53C331A6842F480221A601A6842F413
:1012480080321A609BE700F0CBFF0546694B1B68AC
:1012580013F4003FB3D000F0C3FF401B6428F5D956
:1012680003204EE1634B5B6813F4803FB6D1614BBA
:101278001B6813F0020F04D02369012B01D0012051
:101288003FE15C4A136823F0F803616943EAC1034C
:101298001360236813F0080F32D0A369002B6ED0B7
:1012A8000122564B1A6000F09BFF0546514B5B6AC2
:1012B80013F0020F21D100F093FF401B0228F5D94B
:1012C80003201EE14B4A136823F0F803616943EADF
:1012D800C1031360DDE70022474B1A6000F080FF6E
:1012E8000546444B1B6813F0020FD2D000F078FF7C
:1012F800401B0228F5D9032003E10120FFF704FF72
:10130800236813F0040F00F099803A4BDB6913F05F
:10131800805F46D1374BDA6942F08052DA61DB6987
:1013280003F080530193019B0125354B1B6813F48F
:10133800807F38D0E368012B49D0002B4DD103F1D1
:10134800804303F504331A6A22F001021A621A6A0A
:1013580022F004021A62E368002B5DD000F040FF1F
:101368000646244B1B6A13F0020F66D100F038FFC3
:10137800801B41F288339842F3D90320C1E0002250
:101388001E4B1A6000F02CFF05461A4B5B6A13F0DF
:10139800020FB5D000F024FF401B0228F5D9032026
:1013A800AFE00025C1E7164A136843F48073136061
:1013B80000F016FF0646124B1B6813F4807FB9D164
:1013C80000F00EFF801B6428F5D9032099E0094A34
:1013D800136A43F001031362BDE7052B12D0054BD6
:1013E8001A6A22F001021A621A6A22F004021A62C8
:1013F800B1E700BF001002400000424280044242B0
:1014080000700040414B1A6A42F004021A621A6ADC
:1014180042F001021A629EE700F0E2FE06463B4BEC
:101428001B6A13F0020F08D000F0DAFE801B41F2AD
:1014380088339842F3D9032063E0E5B9E369002BC8
:101448005ED0324A526802F00C02082A5BD0022BA6
:1014580017D000222E4B1A6000F0C2FE04462B4B18
:101468001B6813F0007F47D000F0BAFE001B02286B
:10147800F5D9032045E0254AD36923F08053D36189
:10148800DCE70022224B1A6000F0AAFE05461F4B3B
:101498001B6813F0007F06D000F0A2FE401B022854
:1014A800F5D903202DE0236AB3F5803F1AD01749F8
:1014B8004B6823F47413226A606A024313434B6037
:1014C8000122134B1A6000F08BFE04460F4B1B6879
:1014D80013F0007F0ED100F083FE001B0228F5D91F
:1014E80003200EE0094A536823F40033A1680B4334
:1014F8005360DCE7002004E0002002E0012000E067
:10150800002002B070BD0120FBE700BF00100240C0
:101518006000424210B586B0154C94E80F000DF1FA
:10152800180E0EE90F00238AADF80430114B5B68E2
:1015380003F00C02082A18D1C3F38342724412F84C
:10154800100C13F4803F03D10B4B03FB00F00DE0AC
:10155800084B5B68C3F34043734413F8142C074BE0
:10156800B3FBF2F303FB00F000E0044806B010BD43
:10157800184100080010024000093D0000127A00DE
:10158800594B1B6803F007038B420CD2564A136869
:1015980023F007030B431360136803F00703994212
:1015A80001D00120704770B5036813F0020F06D010
:1015B8004E4A536823F0F0038468234353600D4672
:1015C8000446036813F0010F52D04368012B23D05F
:1015D800022B28D0454A126812F0020F00F08280D0
:1015E80042494A6822F0030213434B6000F0F8FDB9
:1015F80006466368012B1DD0022B2AD03B4B5B6843
:1016080013F00C0F34D000F0EBFD801B41F288334F
:101618009842F3D9032070BD344A126812F4003F8F
:10162800DED1012070BD314A126812F0007FD7D197
:10163800012070BD2D4B5B6803F00C03042B17D001
:1016480000F0CEFD801B41F288339842F2D9032086
:1016580070BD264B5B6803F00C03082B08D000F024
:10166800BFFD801B41F288339842F2D9032070BD38
:101678001D4B1B6803F007039D420CD21A4A1368DE
:1016880023F007032B431360136803F007039D42FD
:1016980001D0012070BD236813F0040F06D0134A4F
:1016A800536823F4E063E1680B435360236813F045
:1016B800080F07D00D4A536823F46053216943EAA1
:1016C800C1035360FFF726FF084B5B68C3F303139E
:1016D800074AD35CD840074B1860002000F050FD43
:1016E800002070BD012070BD0020024000100240A3
:1016F8002C41000800000020014B1868704700BF0B
:101708000000002008B5FFF7F7FF044B5B68C3F340
:101718000223034AD35CD84008BD00BF0010024032
:101728003C41000808B5FFF7E7FF044B5B68C3F3CB
:10173800C223034AD35CD84008BD00BF0010024052
:101748003C41000830B4036A23F001030362036AD2
:101758004468826922F073020D682A4323F0020369
:101768008D682B43114DA84211D005F50065A8429C
:101778000DD00E4DA84211D005F50065A8420DD038
:10178800446082614A684263036230BC704723F058
:101798000803CD682B4323F00403EAE724F44074DC
:1017A8004D692C438D692C43EAE700BF002C0140AA
:1017B80030B4036A23F480730362036A4468C2691D
:1017C80022F073020D682A4323F400738D6843EAFC
:1017D8000523134DA84211D005F50065A8420DD088
:1017E8000F4DA84212D005F50065A8420ED04460FE
:1017F800C2614A68C263036230BC704723F4006365
:10180800CD6843EA052323F48063E9E724F44054D0
:101818004D6944EA05148D6944EA0514E7E700BFF9
:10182800002C014030B4036A23F480530362036A36
:101838004468C26922F4E6420D6842EA052223F4AC
:1018480000538D6843EA0533094DA8420AD005F5CF
:101858000065A84206D04460C2614A680264036217
:1018680030BC704724F480444D6944EA8514F2E79B
:10187800002C014010B4036A046A24F001040462D5
:10188800846924F0F00444EA021223F00A030B43AB
:101898008261036210BC704710B4036A23F010031E
:1018A80003628469036A24F4704444EA023223F030
:1018B800A00343EA01138261036210BC704710B4AD
:1018C800846824F47F4442EA032319430C43846068
:1018D80010BC704710B50268936823F070034C6819
:1018E800234323F007030C68234393604B68502B72
:1018F8001FD00AD9602B22D0702B25D10B698A689A
:10190800C9680068FFF7DBFF10BD402B10D10368E2
:101918001C6A1A6A22F001021A620268936923F0AB
:10192800F003096943EA0113936103681C6210BD5F
:1019380010BD0A6989680068FFF79CFF10BD0A6935
:1019480089680068FFF7A8FF10BD704738B590F8A0
:101958003C30012B01D1022038BD0446012580F816
:101968003C50022380F83D30FFF7B4FF2268D3686B
:1019780023F04003D3602268D36823F48043D36004
:1019880084F83D50002084F83C0038BD0368254A9F
:10199800904212D002F5006290420ED0B0F1804F12
:1019A8000BD0A2F59832904207D002F5806290429F
:1019B80003D002F58062904203D123F070034A6895
:1019C8001343184A904212D002F5006290420ED09A
:1019D800B0F1804F0BD0A2F59832904207D002F5B3
:1019E8008062904203D002F58062904203D123F4D2
:1019F8004073CA68134323F080034A6913430360A2
:101A08008B68C3620B688362064B984206D003F565
:101A18000063984202D00123436170470B69036356
:101A2800F9E700BF002C0140A8B110B5044690F8B2
:101A38003D305BB1022384F83D30211D2068FFF75B
:101A4800A5FF012384F83D30002010BD80F83C300C
:101A5800FFF77BFFEEE701207047000030B4036A10
:101A680023F010030362036A4468826922F4E642A1
:101A78000D6842EA052223F020038D6843EA051326
:101A8800124DA84211D005F50065A8420DD00F4DA2
:101A9800A84212D005F50065A8420ED044608261C4
:101AA8004A688263036230BC704723F08003CD68C4
:101AB80043EA051323F04003E9E724F440644D6941
:101AC80044EA85048D6944EA8504E7E7002C01406F
:101AD80038B590F83C30012B66D00D4604460123FA
:101AE80080F83C30022380F83D300C2A1AD8DFE811
:101AF80002F0071919192019191934191919470069
:101B08000068FFF71FFE2268936943F0080393619A
:101B18002268936923F00403936122689369296911
:101B28000B439361012384F83D30002084F83C0086
:101B380038BD0068FFF792FF2268936943F4006399
:101B480093612268936923F480639361226893699F
:101B5800296943EA01239361E4E70068FFF728FE57
:101B68002268D36943F00803D3612268D36923F05C
:101B78000403D3612268D36929690B43D361D1E790
:101B88000068FFF74FFE2268D36943F40063D3610E
:101B98002268D36923F48063D3612268D3692969F1
:101BA80043EA0123D361BDE7022038BD10B4012305
:101BB80003FA01F4036A23EA04030362036A8A400E
:101BC8001343036210BC704710B504460122006835
:101BD800FFF7ECFF23680C4A934212D002F500622B
:101BE80093420CD000221AB15A6C42F400425A6453
:101BF8002268136843F001031360002010BD01221E
:101C0800F1E70122EFE700BF002C014010B40423E4
:101C180003FA01F4036A23EA04030362036A8A40AD
:101C28001343036210BC704710B5044604220068D1
:101C3800FFF7ECFF2268536C43F4004353642268B7
:101C4800136843F001031360002010BD90F83C3086
:101C5800012B25D0012380F83C30CB6823F4407356
:101C68008A68134323F480634A68134323F40063A8
:101C78000A68134323F480530A69134323F4005377
:101C88004A69134323F480438A69134323F40043C6
:101C9800134302685364002380F83C3018467047A9
:101CA8000220704790F83C30012B22D030B401223A
:101CB80080F83C20022380F83D300468636823F0F4
:101CC80070036360046863680D682B43636004688D
:101CD800A36823F08003A3600468A36849680B43E2
:101CE800A36080F83D20002380F83C30184630BCC3
:101CF8007047022070470000034690F82420012A0C
:101D080020D0012280F824200268906810F0010F8A
:101D180007D10D48806810F0010F02D10B488242AC
:101D280008D09A6A42F020029A620120002283F8C1
:101D380024207047506820F47020096801435160DE
:101D48000020F3E7022070470028014000240140EA
:101D5800074AD36823F4E0631B041B0C000200F459
:101D6800E060184340F0BF6040F40030D060704736
:101D780000ED00E030B4164BDB68C3F30223C3F177
:101D88000704042C28BF04241D1D062D17D9033B66
:101D9800012505FA04F4013C2140994005FA03F3B2
:101DA800013B1340194300280BDB0901C9B200F1BC
:101DB800604000F5614080F8001330BC7047002394
:101DC800E6E700F00F000901C9B2024B1954F4E725
:101DD80000ED00E014ED00E0420900F01F000123CF
:101DE80003FA00F0014B43F82200704700E100E0DD
:101DF8000138B0F1807F0AD2064B5860F021064ABC
:101E080082F823100020986007221A60704701208A
:101E1800704700BF10E000E000ED00E0042805D0A6
:101E2800054A136823F0040313607047024A1368D5
:101E380043F004031360704710E000E0704708B5F2
:101E4800FFF7FCFF08BD0000F0B583B0002634465C
:101E580079E0002D00F0A980012D00D1CE68FF2B7C
:101E680000F2B7808646FF2B00F2B680A500DEF8A8
:101E780000200F27AF4022EA070206FA05F52A4399
:101E8800CEF800204A6812F0805F5BD0674A9569F7
:101E980045F001059561926902F001020192019AEB
:101EA800A208971C624D55F8275004F003074FEA23
:101EB800870E0F2707FA0EF725EA07055D4FB84288
:101EC80000F0908007F58067B84200F08D8007F534
:101ED8008067B84200F08A8007F58067B84200F052
:101EE800878007F58067B84200F0848007F580672F
:101EF800B84275D0062707FA0EF73D4302324C4F19
:101F080047F822504A6812F4803F75D04A4D2A6833
:101F18001A432A604A6812F4003F73D0464D6A6833
:101F28001A436A604A6812F4801F71D0424DAA6849
:101F38001A43AA604A6812F4001F6FD03E4DEA683F
:101F48001343EB6001340F2C6ED80122A2400B68BA
:101F580013409A42F6D14D68122D30D00BD8022D7D
:101F68002AD07FF676AF032D2FD0112D7FF477AFCF
:101F7800CE68043673E7314FBD4216D00CD9304FC6
:101F8800BD4212D007F58037BD420ED0A7F58017A5
:101F9800BD427FF464AF08E0A7F58017BD4204D0C6
:101FA80007F58037BD427FF45AAF8D687DB1012DAA
:101FB80008D04261082652E7CE6808364FE7CE6857
:101FC8000C364CE70261082649E7002647E7042655
:101FD80045E700F1040E46E7A4F10805AD0046E721
:101FE800052788E7002786E7012784E7022782E795
:101FF800032780E704277EE70F4D2A6822EA0302B9
:102008002A6087E70C4D6A6822EA03026A6089E75A
:10201800094DAA6822EA0302AA608BE7064DEA681E
:1020280022EA0303EB608DE703B0F0BD0010024025
:102038000000014000080140000401400000211098
:10204800000031108368194201D100207047012037
:10205800704712B909040161704701617047C3688C
:102068005940C1607047000070B582B004460368EB
:1020780013F0010F34D03E4BDB6913F0805F48D179
:102088003B4BDA6942F08052DA61DB6903F0805336
:102098000193019B0125374B1B6813F4807F3AD0CD
:1020A800334B1B6A13F4407311D0626802F4407218
:1020B80093420CD02E4A136A23F440702E4901260D
:1020C8000E6000260E60106213F0010F37D1284A07
:1020D800136A23F4407361680B431362002D3FD1E8
:1020E800236813F0020F06D0214A536823F44043B3
:1020F800A1680B435360236813F0100F35D01C4AB6
:10210800536823F4800361690B435360002002B0D5
:1021180070BD0025BFE7174A136843F48073136046
:1021280000F05EF80646134B1B6813F4807FB7D1A6
:1021380000F056F8801B6428F5D90320E7E700F083
:102148004FF806460A4B1B6A13F0020FBFD100F086
:1021580047F8801B41F288339842F3D90320D6E729
:10216800D36923F08053D361BAE70020CFE700BFDB
:1021780000100240007000404004424270470000D6
:1021880010B50446074B1868074BA3FB00308009BD
:10219800FFF72EFE002221464FF0FF30FFF7EAFD41
:1021A800002010BD00000020D34D621008B5074A7A
:1021B800136843F0100313600320FFF7C9FD0020E4
:1021C800FFF7DEFFFFF7DAFF002008BD002002401E
:1021D800024A136801331360704700BF7000002083
:1021E800014B1868704700BF7000002030B583B0FD
:1021F8000190FFF7F5FF0546019CB4F1FF3F00D0C1
:102208000134FFF7EDFF401BA042FAD303B030BD05
:102218007047000030B482B00023019390F8243056
:10222800012B00F08B800246012380F824304B6894
:10223800062B29D80568686B03EB8303053B1F242D
:102248009C4020EA04000C6804FA03F303436B6320
:102258000B68092B38D91568E86803EB43031E3B64
:1022680007249C4020EA04008C6804FA03F3034323
:10227800EB600B68103B012B34D90020002382F857
:10228800243002B030BC70470C2B0ED80568286B80
:1022980003EB8303233B1F249C4020EA04000C68C3
:1022A80004FA03F303432B63D2E70568E86A03EBF8
:1022B8008303413B1F249C4020EA04000C6804FA75
:1022C80003F30343EB62C3E71568286903EB430391
:1022D80007249C4020EA04008C6804FA03F30343B3
:1022E8002B61C6E713681648834205D0936A43F00A
:1022F800200393620120C1E7986810F4000F1BD1F6
:10230800986840F4000098600B68102B01D00020FA
:10231800B4E70C4B1B680C49A1FB03139B0C03EBA4
:1023280083035900019102E0019B013B0193019B4A
:10233800002BF9D10020A1E700209FE70220A0E7A9
:10234800002401400000002083DE1B4330B583B029
:102358000023019303689A6812F0010F2ED19A683E
:1023680042F001029A60174B1B68174AA2FB03232D
:102378009B0C019302E0019B013B0193019B002B05
:10238800F9D10446FFF72CFF054623689B6813F034
:10239800010F11D1FFF724FF401B0228F5D9A36ACA
:1023A80043F01003A362E36A43F00103E3620023EE
:1023B80084F82430012002E0002000E0002003B06F
:1023C80030BD00BF0000002083DE1B4390F824309E
:1023D800012B02D102231846704710B50446012389
:1023E80080F82430FFF7B2FF034600285BD1A26AC9
:1023F80022F4407222F0010242F48072A262226842
:102408002B498A4227D0A16A21F48011A162516820
:1024180011F4806F05D0A16A21F4405141F4805134
:10242800A162A16A11F4805F2BD0E16A21F0060154
:10243800E162002184F824106FF002011160226823
:10244800916801F46021B1F5602F1DD0916841F4C5
:10245800801191602AE0A1F58061496811F4702F1C
:10246800D1D0A16A41F48011A1621249496811F4DE
:10247800806FD6D0A16A21F4405141F48051A16205
:10248800CFE70021E162D4E709498A4204D0916884
:1024980041F4A001916009E0A1F58061496811F457
:1024A800702FD3D1F3E7002284F82420184610BDFA
:1024B800002801400024014038B503689A6812F0EA
:1024C800010F01D1002038BD04469A6822F00102AC
:1024D8009A60FFF785FE054623689B6813F0010F95
:1024E8000ED0FFF77DFE401B0228F5D9A36A43F002
:1024F8001003A362E36A43F00103E362012038BDDD
:10250800002038BD002800F08A8070B50446836A30
:10251800002B4DD02046FFF7CFFFA36A13F010031E
:1025280077D1002875D1A26A22F4885222F00202DB
:1025380042F00202A262656821683A4A91423DD09F
:10254800E2692A43E66842EA4602A568B5F5807F53
:102558003ED0012D39D06569012D3CD04D6825F458
:1025680069452B434B6021688D682F4B2B401343E3
:102578008B60A368B3F5807F3ED0012B3CD000234D
:102588002568E96A21F470010B43EB6223689968B6
:10259800264B0B409A4233D0A36A23F0120343F030
:1025A8001003A362E36A43F00103E362012070BDF4
:1025B800C36280F82430FFF72BFEABE7E269B2F57F
:1025C800402FBED14FF40022BBE74FF48073C2E71F
:1025D8004FF48073BFE736B9A569013D43EA453337
:1025E80043F40063BAE7A56A45F02005A562E56AE9
:1025F80045F00105E562B1E72369013B1B05BFE72B
:102608000023E362A36A23F0030343F00103A362F8
:1026180070BDA36A43F01003A362012070BD0120BE
:10262800704700BF003C0140FDF7E1FFFE0E1FFFB1
:102638000268D36823F0C003D360202380F83930C0
:1026480070470268D36823F49073D36002685369B3
:1026580023F001035361202380F83A3070470000CB
:102668002DE9F04705460268136923F44053C16811
:102678000B4313618368026913434269134301687A
:10268800CA6822F4B05222F00C021343CB600268ED
:10269800536923F4407381690B435361D0F8008078
:1026A800594B984557D0FFF72DF800EB800000EB09
:1026B80080006C68A400B0FBF4F4544FA7FB04340A
:1026C80064092601FFF71EF800EB800000EB80008C
:1026D8006C68A400B0FBF4FAFFF714F800EB800074
:1026E80000EB80006C68A400B0FBF4F4A7FB043492
:1026F80064094FF0640909FB14A424013234A7FBD0
:102708000434640904F0F0043444FEF7FBFF00EBE2
:10271800800000EB80006E68B600B0FBF6F6FEF7AE
:10272800F1FF00EB800000EB80006B689B00B0FBC2
:10273800F3F0A7FB0030400909FB10694FEA0919BB
:1027480009F13209A7FB0937C7F343172744C8F82B
:102758000870BDE8F087FEF7E5FF00EB800000EBAE
:1027680080006C68A400B0FBF4F4284FA7FB043485
:1027780064092601FEF7D6FF00EB800000EB80001D
:102788006C68A400B0FBF4FAFEF7CCFF00EB800005
:1027980000EB80006C68A400B0FBF4F4A7FB0434E1
:1027A80064094FF0640909FB14A424013234A7FB1F
:1027B8000434640904F0F0043444FEF7B3FF00EB7A
:1027C800800000EB80006E68B600B0FBF6F6FEF7FE
:1027D800A9FF00EB800000EB80006B689B00B0FB5A
:1027E800F3F3A7FB03235B0909FB13694FEA0919F4
:1027F80009F13209A7FB0937C7F343172744C8F87B
:102808000870BDE8F08700BF003801401F85EB5114
:10281800704758B310B5044690F839300BB32423E9
:1028280084F839302268D36823F40053D3602046F3
:10283800FFF716FF2268136923F490431361226897
:10284800536923F02A0353612268D36843F4005381
:10285800D3600020E063202384F8393084F83A30CC
:1028680010BD80F83830FFF7D3FFD8E70120704754
:1028780030B583B090F83A40E4B2202C02D0022060
:1028880003B030BD00293DD0002A3DD090F8383043
:10289800012B01D10220F3E713460A460446012121
:1028A80080F83810826283850025C563222180F86C
:1028B8003A10416B15488862616B1548C862616BB4
:1028C80014480863616B4D6321680431606B00F044
:1028D800DBF8019523681A6801925A680192019AF7
:1028E80084F83850DA6842F48072DA6022685369F2
:1028F80043F0010353612268536943F04003536175
:102908002846BDE70120BBE70120B9E721290008D7
:10291800612900086D29000808B5436A0268126831
:1029280012F0200F13D10022DA851968CA6822F440
:102938008072CA6019684A6922F001024A611968FE
:102948004A6922F040024A61202283F83A20184658
:1029580000F000FE08BD704708B5406AFFF7FBFFAE
:1029680008BD704710B5446A23685A6994F839302D
:10297800DBB2212B10D023685A6902F0400294F888
:102988003A30DBB2222B11D0E36B43F01003E36340
:102998002046FFF7E6FF10BD02F08002002AEAD0C9
:1029A8000023E3842046FFF743FEE4E7002AEBD048
:1029B8000023E3852046FFF744FEE5E770B4C56BC6
:1029C800066C0124B4406C60046863604368102B93
:1029D80005D0036899600368DA6070BC70470368C3
:1029E8009A600368D960F8E700283FD010B403461E
:1029F80001681F4A91422ED81E4A0A441E49A1FB6B
:102A080002121209920002641C4AC263022283F86D
:102A180021201868016821F47F5121F030015A689B
:102A28009C682243DC6822431C6922435C69224378
:102A38009C692243DC6922430A43026000209862B1
:102A4800D862186358639863012283F8212083F8B9
:102A5800200010BC70470A4A0A440749A1FB021229
:102A6800120992000264074AC263CFE70120704747
:102A780007040240F8FFFDBFCDCCCCCC00000240DB
:102A8800F8FBFDBF0004024038B590F82040012C47
:102A980032D0012480F8204090F82140012C04D045
:102AA800002380F82030022038BD0446022084F834
:102AB80021000020A0632568286820F00100286014
:102AC8002046FFF77BFFE36A5BB12268136843F097
:102AD8000E0313602268136843F00103136000209B
:102AE80038BD2268136823F0040313602268136852
:102AF80043F00A031360EDE7022038BD38B5C36B15
:102B08001A6804682568016C04238B401A4200F097
:102B1800978015F0040F00F09380236813F0200FBE
:102B280003D1236823F0040323600368A34A934274
:102B380042D9783A934221D01432934227D01432A2
:102B4800934226D01432934226D01432934226D090
:102B58001432934226D002F56772934225D014327C
:102B6800934224D01432934223D01432934202D099
:102B78004FF4802203E04FF4804200E00422904B9F
:102B88005A60C36A002B00F01781984738BD40226D
:102B9800F5E74FF48062F2E74FF48042EFE74FF435
:102BA8008022ECE74FF48002E9E70422E7E74022BD
:102BB800E5E74FF48062E2E7824A934224D0143278
:102BC800934225D01432934224D01432934224D015
:102BD8001432934224D01432934224D014329342B4
:102BE80024D002F56272934223D01432934222D049
:102BF8001432934221D01432934202D04FF48022EF
:102C080003E04FF4804200E004226F4B5A60B8E7BB
:102C18004022FAE74FF48062F7E74FF48042F4E786
:102C28004FF48022F1E74FF48002EEE74FF0806224
:102C3800EBE70422E9E74022E7E74FF48062E4E7A4
:102C480002238B401A4200F09C8015F0020F00F01E
:102C58009880236813F0200F06D1236823F00A0315
:102C68002360012380F821300368544A934244D9F1
:102C7800783A934221D01432934229D014329342A5
:102C880028D01432934228D01432934228D01432D8
:102C9800934228D002F56772934227D014329342A8
:102CA80026D01432934225D01432934202D04FF4E6
:102CB800003203E04FF4005200E00222404B5A6019
:102CC800002380F82030836A002B75D0984738BDE0
:102CD8002022F3E74FF40072F0E74FF40052EDE7DB
:102CE8004FF40032EAE74FF40012E7E70222E5E783
:102CF8002022E3E74FF40072E0E7324A934224D0FF
:102D08001432934225D01432934224D01432934281
:102D180024D01432934224D01432934224D0143253
:102D2800934224D002F56272934223D01432934224
:102D380022D01432934221D01432934202D04FF45D
:102D4800003203E04FF4005200E002221E4B5A60AA
:102D5800B6E72022FAE74FF40072F7E74FF4005283
:102D6800F4E74FF40032F1E74FF40012EEE74FF0CA
:102D78000072EBE70222E9E72022E7E74FF400724E
:102D8800E4E7082303FA01F10A4215D015F0080F09
:102D980012D0236823F00E032360C16B026C012359
:102DA80003FA02F24A60836380F82130002380F836
:102DB8002030036B03B1984738BD00BF8000024044
:102DC8000004024008000240000002400F4B1A684D
:102DD80042F001021A6059680D4A0A405A601A689E
:102DE80022F0847222F480321A601A6822F4802257
:102DF8001A605A6822F4FE025A604FF41F029A6061
:102E08004FF00062034B9A60704700BF0010024009
:102E18000000FFF800ED00E0F0B589B03E4EF36920
:102E280043F40033F361F36903F400330093009B28
:102E3800062205211020FEF79DFF1020FEF7CCFF8B
:102E4800072205211120FEF795FF1120FEF7C4FF88
:102E5800324D334B2B604FF4E1336B600024AC6090
:102E6800EC602C610C236B61AC612846FFF7D1FC48
:102E7800736943F001037361736903F001030193FC
:102E8800019BB36943F00403B361B36903F004031E
:102E98000293029BF36943F40033F361F36903F48B
:102EA80000330393039B0123069304230493022313
:102EB800059303230793A6F5843604A93046FEF745
:102EC800C3FF08230493059404A93046FEF7BCFF0A
:102ED800144E154B33607460B4608027F76034611A
:102EE80074612023B361F4613046FFF77DFD6E63A2
:102EF80075620E4E0E4B336010237360B460F7603A
:102F080034617461B461F4613046FFF76DFD2E637E
:102F1800756209B0F0BD00BF001002408C020020AD
:102F280000440040740000206C000240340200207D
:102F3800800002402DE9F04F89B07B4B9A6942F03E
:102F480004029A619A6902F004020192019A9A694C
:102F580042F008029A619A6902F008020292029A03
:102F68009A6942F010029A619B6903F01003039377
:102F7800039B002305930693022707974FF0200A27
:102F88000DEB0A0444F810AD21466848FEF75CFFD3
:102F98004023049321466548FEF756FF8025049593
:102FA80021466248FEF750FF4FF4806304932146A0
:102FB8005F48FEF749FF4FF40063049321465C48DD
:102FC800FEF742FF4FF48056049621465848FEF714
:102FD8003BFF049621465748FEF736FF04972146E3
:102FE8005448FEF731FF4FF00108CDF814804FF038
:102FF8000409CDF8109021464C48FEF725FF10260D
:10300800049621464B48FEF71FFFCDF810A0214635
:103018004848FEF719FF03230593CDF81080214691
:103028004348FEF711FFCDF8108021464148FEF7CE
:103038000BFF4FF0080BCDF810B021463C48FEF7C7
:1030480003FF049721463A48FEF7FEFE0496214600
:103058003748FEF7F9FECDF810A021463448FEF7B0
:10306800F3FECDF8109021463148FEF7EDFECDF87D
:1030780010B021462F48FEF7E7FECDF81090214604
:103088002C48FEF7E1FE0597402304932146284883
:10309800FEF7DAFE049521462548FEF7D5FE4FF4E3
:1030A8008079CDF8109021462148FEF7CDFE049591
:1030B80021462048FEF7C8FECDF8108021461B485F
:1030C800FEF7C2FE049721461848FEF7BDFECDF86C
:1030D800109021461748FEF7B7FE4FF4007304938B
:1030E80021461448FEF7B0FE4FF48063049321464E
:1030F8001048FEF7A9FE4FF40053049321460B48ED
:10310800FEF7A2FE4FF48043049321460748FEF7DA
:103118009BFE4FF40043049321460448FEF794FEB7
:1031280009B0BDE8F08F00BF00100240000C01405C
:1031380000100140000801402DE9F04F99B0754B8F
:103148009A6942F400629A619A6902F400620192F3
:10315800019A9A6942F400529A619B6903F40053F8
:103168000293029B6C4EDFF8B891C6F800900024D9
:1031780074604FF02008C6F808804FF4FA6BC6F860
:103188000CB034617461B4613046FEF74DFC102315
:103198001693179416A93046FEF784FD60230F9303
:1031A8001094119408271297139414944FF40073F1
:1031B800159322460FA93046FEF78AFC04220FA970
:1031C8003046FEF785FC3A460FA93046FEF780FCEC
:1031D8004FF4006308934FF4806309930A94CDF881
:1031E8002C800C940D940E940DEB08013046FEF7DC
:1031F8002DFD4A4DDFF82CA1C5F800A06C60C5F87C
:103208000880C5F80CB02C616C61AC612846FEF7EB
:103218000BFCCDF858808023179316A92846FEF793
:1032280041FD049418A9052341F8543D2846FEF7AA
:103238008DFB60230F931094119412971394149498
:103248004FF40073159322460FA92846FEF740FC59
:1032580004220FA92846FEF73BFC3A460FA9284648
:10326800FEF736FC4FF4006308934FF4806309932C
:103278000A94CDF82C800C940D940E940DEB080153
:103288002846FEF7E3FCDAF8443023F40043CAF892
:103298004430D9F8443023F40043C9F84430214677
:1032A8002846FEF791FC04212846FEF78DFC394696
:1032B8002846FEF789FC21462846FEF7B5FC04217E
:1032C8002846FEF7B1FC39462846FEF7ADFC2146F4
:1032D8003046FEF779FC04213046FEF775FC394686
:1032E8003046FEF771FC21463046FEF79DFC04216E
:1032F8003046FEF799FC39463046FEF795FC2B68B8
:1033080001221A633268136843F00103136019B08D
:10331800BDE8F08F001002403C010020CC020020E4
:10332800002C0140003401402DE9F04186B0424EA6
:10333800B36943F40073B361B36903F40073009392
:10334800009B3E4C3E4B23604FF48073A3600025E6
:10335800E56065614FF44023E36165604FF005085F
:10336800C4F810802046FFF7CDF8364A536843F476
:103378008023536006A94FF4C02341F8043D20463A
:10338800FEF7BAFC012304930E220292039302A9CA
:103398002046FEF73FFF02950227039702A9204621
:1033A800FEF738FF04970B2702970323039302A91C
:1033B8002046FEF72FFF0C2302930423039302A950
:1033C8002046FEF727FF0723049310230293CDF826
:1033D8000C8002A92046FEF71DFF2268936843F47B
:1033E800000343F480739360936843F00103936090
:1033F800736943F001037361736903F00103019377
:10340800019B114B1D60C3F80480104A9A60104A52
:10341800DA6040F6A2221A601A6842F001021A60C5
:103428002A4629463846FEF7A5FC3846FEF7D4FC5E
:1034380006B0BDE8F08100BF001002400402002081
:103448000024014000000140080002404C240140D3
:1034580078020020F0B585B0284B9A6942F4806262
:103468009A619B6903F480630093009B244C254B6D
:1034780023604FF48073A3600023E36063614FF41B
:103488006022E2616360052626612046FFF73AF86C
:10349800012303930F220192029301A92046FEF70C
:1034A800B9FE0D2301930225029501A92046FEF7D6
:1034B800B1FE03950A2301930327029701A9204629
:1034C800FEF7A8FE0195042302930DEB03012046A5
:1034D800FEF7A0FE072303930197029601A9204651
:1034E800FEF798FE23689A6842F480729A609A6898
:1034F80042F001029A6005B0F0BD00BF0010024022
:10350800B8000020002801400D4B1B681333262B00
:1035180014D810B500240B4B1C700B4B1C7005E025
:103528000A4B1C706420FEF761FE0134072CF7DD9E
:10353800002220210648FEF78CFDFEE7704700BFF9
:1035480028030020440000205000002040000020F4
:103558000008014008B50A4B1B881BB2012B05D097
:10356800074B1B881BB2022B07D008BD044A5188A1
:10357800044B598092881A80F7E7FFF7C5FFF4E7F4
:10358800140300201003002030B597B002250C95D5
:1035980001231093102311931395002414944FF4CE
:1035A800601315930CA8FDF7C5FD0F230793089525
:1035B80009944FF480630A930B94294607A8FDF7F2
:1035C800DFFF01954FF44043039301A8FEF74CFD3C
:1035D800FEF792F8084BA3FB00308009FEF708FCC1
:1035E8000420FEF71BFC224621464FF0FF30FEF771
:1035F800C1FB17B030BD00BFD34D62100000000002
:103608002DE9704382B0FEF7D1FDAD4CA36943F0BC
:103618000103A361A36903F001030193019B032044
:10362800FEF796FB002211466FF00B00FEF7A2FB97
:10363800002211466FF00A00FEF79CFB002211469B
:103648006FF00900FEF796FB002211466FF00400A8
:10365800FEF790FB002211466FF00300FEF78AFB8D
:10366800002211466FF00100FEF784FB002211468C
:103678004FF0FF30FEF77EFBFFF786FF636923F00C
:1036880001036361FFF756FCFFF756FDFFF74CFE99
:10369800FFF7E0FE012220218A48FEF7DAFC8A487B
:1036A800FEF794FE8948FEF791FE082405E0884B52
:1036B8001C706420FEF79AFD013C002CF7DA844B5D
:1036C80000221A70012204218248FEF7C2FCFFF78B
:1036D800A3FB062280498148FFF7CAF8804B1B8A62
:1036E800804B01221A70B9E04FF47A747E4B1C604B
:1036F8007E4B5B881BB2B3F57A7F0BDC7B4B5B8818
:103708001BB213F57A7F6ADB784B5D882DB203E034
:10371800774CEBE74FF47A75764B1D60764B0022B9
:103728001A60764E3068FCF715FF61A3D3E90023D1
:10373800FCF77AFF804689462046FCF70BFF5EA31C
:10374800D3E90023FCF770FF02460B464046494682
:10375800FCF7B4FDFDF702FA04463060684E3068A5
:10376800FCF7F8FE52A3D3E90023FCF75DFF80467F
:1037780089462846FCF7EEFE4FA3D3E90023FCF761
:1037880053FF02460B4640464946FCF797FDFDF7B6
:10379800E5F93060B4F57A7F23DC554B9C42B8BF1D
:1037A8001C46B0F57A7F1FDC514B9842B8BF1846CB
:1037B80080EAE075A5EBE075B5F52F7F17DD84EAA3
:1037C800E473A3EBE473B3F52F7F10DDA5F5167250
:1037D8004C490A60A3F516734B4A13600CE0444D3C
:1037E8009AE74FF47A74DCE74FF47A70E0E7002345
:1037F800444A1360444A1360444B1C60444B1860AD
:10380800444B1A68444BA3FB0213DB0803EB830306
:1038180003EB83039A4201D1314B1B8A02212948C9
:10382800FEF710FC28B1384B1B6813B9354B1B68E1
:103838004BB30023264A1370384A1370322D05DC27
:1038480084EAE470A0EBE470322828DD314B0022D2
:103858001A60304B1A68324B9A4225D80520FEF779
:10386800C5FC224B1B881BB2B3F57A7F3FF73CAFF0
:103878001E4B1B881BB213F57A7FFFF649AF1B4B13
:103888001C8824B232E7174B00221A7002210D4817
:10389800FEF7D8FB0028F9D1FFF736FEC9E71D4A25
:1038A800136801331360D4E7FFF72EFED6E700BF95
:1038B800666666666666EE3F9A9999999999A93FF0
:1038C800001002400008014004020020B800002057
:1038D80040000020000C0140140300208C0200204E
:1038E8007802002050000020300300201003002040
:1038F80018FCFFFF1C030020040000202003002008
:1039080028030020680000206C00002064000020CC
:10391800600000200C0300201F85EB5144000020AC
:103928008038010000000000774B02225A60774B74
:103938001B68B3F57A7F5EDB2DE9F041744B1A689A
:10394800744BA3FB02139B094FF47A7101FB1323F9
:103958000BBB714C2068FCF70FFE65A3D3E900236D
:10396800FCF762FE06460F466C4B9889FDF724FA71
:103978006B49FDF779FAFCF7FFFD5FA3D3E9002354
:10398800FCF752FE02460B4630463946FCF796FCD9
:10399800FDF70CF92060614B5889624B1C68001BCD
:1039A800FCF7D8FD56A3D3E90023FCF73DFE00221F
:1039B8000023FDF7ABF8002852D1584B5889001B5B
:1039C800FCF7C8FD4EA3D3E90023FCF72DFE002227
:1039D800554BFDF7B9F8002852D1544B1B68052BFD
:1039E8004ED8534B1B78002B4AD0524A536C43F4A1
:1039F8000043536449E00133444A1360474A9088BE
:103A08004D490B68034403EBD3735B100B60D088FC
:103A18004A490B68034403EBD3735B100B601088AF
:103A280047490B68034403EBD3735B100B60508862
:103A380044490B68034403EBD3735B100B60508954
:103A480038490B68034403EBD3735B100B6011898F
:103A58003D4A13680B4403EBD3735B101360704744
:103A68002E4B5889001BFCF775FD25A3D3E90023CD
:103A7800FCF7DAFD0022354BFDF748F80028ACD0FA
:103A88002C4A536C23F400435364244B18892E4B5F
:103A98001C68001BFCF75EFD19A3D3E90023FCF7A3
:103AA800C3FD00220023FDF731F8002852D11B4B3B
:103AB8001889001BFCF74EFD11A3D3E90023FCF77E
:103AC800B3FD0022184BFDF73FF8002852D1174BE1
:103AD8001B68052B4ED8164B1B78002B4AD01C4A66
:103AE800536C43F40043536449E000BFAFF30080D4
:103AF800AE47E17A14AEEF3F7B14AE47E17A843FDC
:103B08007B14AE47E17A943F000002405400002045
:103B180048000020D34D62100800002078020020E1
:103B280017B9CE3C0C00002000002E4004000020F5
:103B3800500000200034014014000020180000202C
:103B48001C000020200000201000002000002EC0D3
:103B5800002C0140904B1889001BFCF7FBFC8CA340
:103B6800D3E90023FCF760FD00228C4BFCF7CEFF65
:103B78000028ACD08A4A536C23F400435364894923
:103B88008B6813F0200F0CBF012300238A6812F002
:103B9800400F0CBF01220022896811F0800F0CBF72
:103BA800012500258049886810F4806F0CBF01202A
:103BB80000208C6814F4006F0CBF0124002489686D
:103BC80011F4805F02EB450203EB4203774EF35C8E
:103BD80077490B600B6803F102030B600D68754BA6
:103BE80083FB0572A2EBE57202EB42024FEA420741
:103BF800A5EB07020A600CBF02220022224400EB58
:103C08004202B05C6C4A10601068023010601068A4
:103C180083FB0043A3EBE07303EB43035C00031B4C
:103C2800136009685C488388644A12689A1AC388D2
:103C3800634800681B1A052934D8DFE801F003231C
:103C480026292C2FD31A5F4A13605F4A1368013361
:103C580013605E4A14684CB35D4AA2FB0312120B50
:103C68005C4909680131B2FBF1F001FB1022EAB9A5
:103C7800B3FBF4F204FB1233EBB910215648FEF7FC
:103C8800EEF918E04F4B1A60DFE74E4B1A60DCE79D
:103C98004C4A1360D9E74B4A1360D6E79B1A494A46
:103CA8001360D2E7474B00221A60CEE700221021AA
:103CB8004948FEF7CEF9494BD3F800C03C4B1B6886
:103CC800052B2BD8DFE803F00312171C2226CCF1B2
:103CD800000064469C46424B1968374B1B68052B0D
:103CE80052D8DFE803F01F3F43474B4E6446CCF100
:103CF800000C0020EFE76046CCF1000C0024EAE756
:103D0800CCF1000460464FF0000CE4E7CCF100046D
:103D18000020E0E7CCF100000024DCE700200446A6
:103D28008446D8E74E420F4619462C4B1B68002B99
:103D380040F398802B4B1D681D4B1B6805331D4AAB
:103D480082FB03E2A2EBE37202EB42024FEA420E6D
:103D5800A3EB0E02052A00F2B980DFE802F0456AFB
:103D68006F74797E0F4649420026DEE70E464942C7
:103D78000027DAE74F420E460021D6E74F420026D9
:103D8800D3E74E420027D0E7002637463146CCE736
:103D98007B14AE47E17A943F7802002000002EC0E1
:103DA800002C0140000C0140001001404441000873
:103DB80058000020ABAAAA2A5C00002014000020AA
:103DC800180000204C00002048000020400000207F
:103DD8005917B7D1440000200008014060000020B6
:103DE8006400002068000020C5F10008AE461546B2
:103DF800654474444044964B1B68002B40F3D780BD
:103E0800944B1B68944A126802F1050C934A82FB92
:103E18000CE2A2EBEC7202EB42024FEA420EACEB70
:103E28000E02052A00F2F980DFE802F058A8ADB2C8
:103E3800B7BCAE466D424FF00008D9E7A8466D42C0
:103E48004FF0000ED4E7C5F1000EA8460025CFE7D5
:103E5800C5F1000E4FF00008CAE7C5F100084FF0A1
:103E6800000EC5E77E4B1D68C5F1000E7D4B1A6834
:103E780001327A4B83FB0283A3EBE27303EB430328
:103E88004FEA4308A2EB0803052B1AD8DFE803F032
:103E98000323060A0E14A8461D46A9E7F0464FF06C
:103EA800000EA5E7F046AE460025A1E72B4675466D
:103EB8009E464FF000089BE7A84675464FF0000E57
:103EC80096E74FF00008C646454691E74FF00008D0
:103ED800C64645468CE74FF0000889E7C3F100085D
:103EE8009E461346194407EB0E0206EB080305F538
:103EF8007A7540F2C676B54200F397800A2DB8BFAE
:103F08000A25594E756304F57A7440F2C675AC42B9
:103F180000F38E800A2CB8BF0A24534DAC6300F519
:103F28007A7040F2C674A04200F385800A28B8BFB0
:103F38000A204D4CE06301F57A7140F2C670814267
:103F48007CDC0A29B8BF0A214848416302F57A7225
:103F580040F2C6718A4274DC0A2AB8BF0A22434971
:103F68008A6303F57A7340F2C67293426CDC0A2BBB
:103F7800B8BF0A233D4AD363BDE8F0819E465B4241
:103F88004FF00008AEE798465B424FF0000EA9E7F5
:103F9800C3F1000E98460023A4E7C3F1000E4FF0CA
:103FA80000089FE7C3F100084FF0000E9AE7294B7D
:103FB8001B68C3F1000E284A12680132DFF89CC062
:103FC8008CFB028CACEBE27C0CEB4C0C4FEA4C0803
:103FD800A2EB080CBCF1050F1AD8DFE80CF003239C
:103FE800060A0E14984663467CE7F0464FF0000E2A
:103FF80078E7F0469E46002374E71A4673469646CD
:104008004FF000086EE7984673464FF0000E69E7D8
:104018004FF00008C646434664E74FF00008C6461E
:1040280043465FE74FF000085CE740F2C67568E773
:1040380040F2C67471E740F2C6707AE740F2C67182
:1040480082E740F2C6728AE740F2C67392E700BF81
:10405800640000206C0000205C000020ABAAAA2AA3
:10406800680000205800002000340140002C014066
:104078007047FEE7FEE7FEE7FEE7704770477047C8
:1040880008B5FEF7A5F8FDF7DAFE08BD08B5024841
:10409800FEF734FD08BD00BF7400002008B50248D3
:1040A800FEF72CFD08BD00BF34020020002103E00C
:1040B8000B4B5B58435004310A480B4B42189A4249
:1040C800F6D30A4A02E0002342F8043B084B9A421E
:1040D800F9D3FEF77BFEFCF7C7F8FFF791FA7047B4
:1040E8005441000800000020240000202400002083
:1040F80034030020FEE70000F8B500BFF8BC08BC98
:104108009E467047F8B500BFF8BC08BC9E4670478D
:1041180002030405060708090A0B0C0D0E0F101000
:10412800010200000000000000000000010203047A
:10413800060708090000000001020304000002014C
:044148000405030067
:04414C005102000814
:044150002902000838
:1041540000A24A046400000000002042D0070000CE
:10416400D0070000D0070000D0070000D0070000EF
:04417400D007000070
:04000005080040B5FA
:00000001FF
